:020000040000fa
:080000000002040000000000f2
:020000040000fa
:0400080004060000ea
:020000040000fa
:04000c0004060000e6
:020000040000fa
:0400100004060000e2
:020000040000fa
:0400140004060000de
:020000040000fa
:0400180004060000da
:020000040000fa
:04001c0004060000d6
:020000040000fa
:0400200004060000d2
:020000040000fa
:0400240004060000ce
:020000040000fa
:0400280004060000ca
:020000040000fa
:04002c0004060000c6
:020000040000fa
:0400300004060000c2
:020000040000fa
:04003400480500007b
:020000040000fa
:0400380004060000ba
:020000040000fa
:04003c0004060000b6
:020000040000fa
:0400400004060000b2
:020000040000fa
:0400440004060000ae
:020000040000fa
:04004800f0050000bf
:020000040000fa
:04004c0004060000a6
:020000040000fa
:0400500004060000a2
:020000040000fa
:04005400d4020000d2
:020000040000fa
:04005800940300000d
:020000040000fa
:04005c00a4050000f7
:020000040000fa
:040060000406000092
:020000040000fa
:04006400040600008e
:020000040000fa
:04006800040600008a
:020000040000fa
:04006c000406000086
:020000040000fa
:040070000406000082
:020000040000fa
:04007400040600007e
:020000040000fa
:04007800040600007a
:020000040000fa
:04007c000406000076
:020000040000fa
:040080000406000072
:020000040000fa
:04008400040600006e
:020000040000fa
:04008800040600006a
:020000040000fa
:04008c000406000066
:020000040000fa
:040090000406000062
:020000040000fa
:04009400040600005e
:020000040000fa
:04009800040600005a
:020000040000fa
:04009c000406000056
:020000040000fa
:0400a0001204000046
:020000040000fa
:0400a400d204000082
:020000040000fa
:0400a800040600004a
:020000040000fa
:0400ac000406000046
:020000040000fa
:0400b0000406000042
:020000040000fa
:0400b400040600003e
:020000040000fa
:0400b800040600003a
:020000040000fa
:0400bc000406000036
:020000040000fa
:0400c0000406000032
:020000040000fa
:0400c400040600002e
:020000040000fa
:0400c800040600002a
:020000040000fa
:0400cc000406000026
:020000040000fa
:0400d0000406000022
:020000040000fa
:0400d400040600001e
:020000040000fa
:0400d800040600001a
:020000040000fa
:0400dc000406000016
:020000040000fa
:0400e0000406000012
:020000040000fa
:0400e400040600000e
:020000040000fa
:0400e800040600000a
:020000040000fa
:0400ec000406000006
:020000040000fa
:0400f0000406000002
:020000040000fa
:0400f40004060000fe
:020000040000fa
:0400f80004060000fa
:020000040000fa
:0400fc0004060000f6
:020000040000fa
:0401000004060000f1
:020000040000fa
:0401040004060000ed
:020000040000fa
:0401080004060000e9
:020000040000fa
:04010c0004060000e5
:020000040000fa
:0401100004060000e1
:020000040000fa
:0401140004060000dd
:020000040000fa
:0401180004060000d9
:020000040000fa
:04011c0004060000d5
:020000040000fa
:0401200004060000d1
:020000040000fa
:0401240004060000cd
:020000040000fa
:0401280004060000c9
:020000040000fa
:04012c0004060000c5
:020000040000fa
:0401300004060000c1
:020000040000fa
:0401340004060000bd
:020000040000fa
:0401380004060000b9
:020000040000fa
:04013c0004060000b5
:020000040000fa
:0401400004060000b1
:020000040000fa
:0401440004060000ad
:020000040000fa
:0401480004060000a9
:020000040000fa
:0402080004060000e8
:020000040000fa
:04020c0004060000e4
:020000040000fa
:0402100004060000e0
:020000040000fa
:0402140004060000dc
:020000040000fa
:0402180004060000d8
:020000040000fa
:04021c0004060000d4
:020000040000fa
:0402200004060000d0
:020000040000fa
:0402240004060000cc
:020000040000fa
:0402280004060000c8
:020000040000fa
:04022c0004060000c4
:020000040000fa
:0402300004060000c0
:020000040000fa
:040234004805000079
:020000040000fa
:0402380004060000b8
:020000040000fa
:04023c0004060000b4
:020000040000fa
:0402400004060000b0
:020000040000fa
:0402440004060000ac
:020000040000fa
:04024800f0050000bd
:020000040000fa
:04024c0004060000a4
:020000040000fa
:0402500004060000a0
:020000040000fa
:04025400d4020000d0
:020000040000fa
:04025800940300000b
:020000040000fa
:04025c00a4050000f5
:020000040000fa
:040260000406000090
:020000040000fa
:04026400040600008c
:020000040000fa
:040268000406000088
:020000040000fa
:04026c000406000084
:020000040000fa
:040270000406000080
:020000040000fa
:04027400040600007c
:020000040000fa
:040278000406000078
:020000040000fa
:04027c000406000074
:020000040000fa
:040280000406000070
:020000040000fa
:04028400040600006c
:020000040000fa
:040288000406000068
:020000040000fa
:04028c000406000064
:020000040000fa
:040290000406000060
:020000040000fa
:04029400040600005c
:020000040000fa
:040298000406000058
:020000040000fa
:04029c000406000054
:020000040000fa
:0402a0001204000044
:020000040000fa
:0402a400d204000080
:020000040000fa
:0402a8000406000048
:020000040000fa
:0402ac000406000044
:020000040000fa
:0402b0000406000040
:020000040000fa
:0402b400040600003c
:020000040000fa
:0402b8000406000038
:020000040000fa
:0402bc000406000034
:020000040000fa
:0402c0000406000030
:020000040000fa
:0402c400040600002c
:020000040000fa
:0402c8000406000028
:020000040000fa
:0402cc000406000024
:020000040000fa
:0402d0000406000020
:020000040000fa
:0402d400040600001c
:020000040000fa
:0402d8000406000018
:020000040000fa
:0402dc000406000014
:020000040000fa
:0402e0000406000010
:020000040000fa
:0402e400040600000c
:020000040000fa
:0402e8000406000008
:020000040000fa
:0402ec000406000004
:020000040000fa
:0402f0000406000000
:020000040000fa
:0402f40004060000fc
:020000040000fa
:0402f80004060000f8
:020000040000fa
:0402fc0004060000f4
:020000040000fa
:0403000004060000ef
:020000040000fa
:0403040004060000eb
:020000040000fa
:0403080004060000e7
:020000040000fa
:04030c0004060000e3
:020000040000fa
:0403100004060000df
:020000040000fa
:0403140004060000db
:020000040000fa
:0403180004060000d7
:020000040000fa
:04031c0004060000d3
:020000040000fa
:0403200004060000cf
:020000040000fa
:0403240004060000cb
:020000040000fa
:0403280004060000c7
:020000040000fa
:04032c0004060000c3
:020000040000fa
:0403300004060000bf
:020000040000fa
:0403340004060000bb
:020000040000fa
:0403380004060000b7
:020000040000fa
:04033c0004060000b3
:020000040000fa
:0403400004060000af
:020000040000fa
:0403440004060000ab
:020000040000fa
:0403480004060000a7
:020000040000fa
:10040000afb021000e7f22000e0188000000000026
:10041000000020000000e000020032000001200087
:100420002002880014000700f90107000000e00026
:1004300003003a004095230001002000020037002d
:100440000000200001002000810f70000100320038
:1004500014000700000020000000e000020032004d
:100460000000020000000000b43b02000000000099
:100470000040da000000fe004440a9000002200015
:100480000000e0000300320000002000a00188000e
:100490004440a800000006008a1f78008b1f7800e7
:1004a0000000060091018800800478000000eb0045
:1004b0001a003700e284440032a0b4009905ba0063
:1004c000e284440032a0b4009906ba00e2844400f9
:1004d00032a0b4000006eb00476fde00fd07b2005b
:1004e000636ce10003003a00ebff07000000eb0043
:1004f0000a003700606ce10004003a00005deb0088
:100500008b05e900fdff3e00040037006168e10053
:10051000010032000086eb000b00070019c7ba008b
:100520001905ba000e04e00003003a000a00e000da
:10053000e0ff3a0000000600fe07b2009e018800be
:100540008a047800f5ff3700395dba008b05e900b1
:100550000c003200295dba008b05e900080032006a
:100560000c00e00003003a00e284440032a0b40032
:10057000f5ff370019ddba008b05e900faff3a00f4
:100580008904e800e184440032a0b40000000600c1
:10059000000000000000000000000000000000005b
:1005a00000000000000000003600f800809fbe0040
:1005b000829fbe00849fbe00869fbe003400f8006c
:1005c00000002000a00188000400fa008560a90056
:1005d0009082200011c0b3000148780030118000e3
:1005e000804078008082200001487800100280005e
:1005f0004500de00674060000080fb00000f7800cf
:1006000011028000000e200001007000100288001e
:1006100000000000808220001040780080407800b8
:10062000a0862000b91a07001e007800004078005c
:10063000674060000080fb00670060004500dd004f
:1006400012028000f1f12f008100610001007000b2
:100650001002880000000000100280004500de004b
:10066000674060000080fb001007980011028000c6
:10067000000e200001007000100288000000000041
:10068000229980008082200090407800402a21003a
:100690000000410001487800209980000000e80037
:1006a0002099880021998000f0072000808f500059
:1006b000020036000000eb0020998800419980007c
:1006c000f0072000808f500003003e00409980001a
:1006d0000000e800409988001e009000004078006b
:1006e000674060000080fb00670060004500dd009f
:1006f00012028000f1f12f00810061000100700002
:1007000010028800000000000080fa003400f900a8
:100710004f03be004f02be004f01be004f00be009f
:100720003600f900004006003600f800809fbe0049
:10073000829fbe00849fbe00869fbe003400f800ea
:1007400000002000a00188000400fa008580a900b4
:100750007087200011c0b3000148780010028000ab
:100760004500de00674060000080fb00000f78005d
:1007700011028000000e20000100700010028800ad
:10078000000000006300470080007800a0a7200060
:100790008c1a0700204798001e007800004078005f
:1007a000674060000080fb00670060004500dd00de
:1007b00012028000f1f12f00810061000100700041
:1007c00010028800000000002e4090000004e000ad
:1007d00008003200be409000608720000148780089
:1007e00060872000104078000080fb002011880006
:1007f000040037009580a9008087200011c0b30055
:10080000014878000080fa003400f9004f03be0070
:100810004f02be004f01be004f00be003600f9007f
:10082000004006003600f800809fbe00829fbe0098
:10083000849fbe00869fbe003400f80000002000a8
:10084000a00188000400fa0087c0a90070a8200059
:1008500011c0b30001487800b011800080407800da
:1008600060a8200001487800100280004500de00ea
:10087000674060000080fb00000f780011028000dc
:10088000000e20000100700010028800000000002f
:1008900060a82000104078008040780080e82000a8
:1008a0001a1a07001e0078000040780067406000b8
:1008b0000080fb00670060004500dd001202800040
:1008c000f1f12f008100610001007000100288002a
:1008d00000000000100280004500de00674060005c
:1008e0000080fb001007980011028000000e20001d
:1008f00001007000100288000000000052b9800062
:1009000060a8200090407800a03221000000410043
:100910000148780050b980000000e80050b9880014
:1009200051b98000f03f2000808f50000200360057
:100930000000eb0050b9880071b98000f03f200042
:10094000808f500003003e0070b980000000e80076
:1009500070b988001e009000004078006740600079
:100960000080fb00670060004500dd00120280008f
:10097000f1f12f0081006100010070001002880079
:10098000000000000080fa003400f9004f03be00b0
:100990004f02be004f01be004f00be003600f900fe
:1009a000004006003600f800809fbe00829fbe0017
:1009b000849fbe00869fbe003400f8000000200027
:1009c000a00188000400fa0087e0a90050e9200097
:1009d00011c0b30001487800100280004500de001d
:1009e000674060000080fb00000f7800110280006b
:1009f000000e2000010070001002880000000000be
:100a0000630047008000780080292100ed1907006d
:100a1000204798001e007800004078006740600082
:100a20000080fb00670060004500dd0012028000ce
:100a3000f1f12f00810061000100700010028800b8
:100a4000000000002e4090000004e000040032008e
:100a50003e4090000080fb00a01188000400370099
:100a600097e0a90060e9200011c0b30001487800b8
:100a70000080fa003400f9004f03be004f02be00b0
:100a80004f01be004f00be003600f90000400600d6
:100a90003600f800809fbe00829fbe00849fbe008b
:100aa000869fbe003400f80000002000a0018800ee
:100ab0000000fa008460a90010002000c0c3880074
:100ac000b0c380000000e800b0c38800d0c380003d
:100ad000e1c3800061004000e0804800d0c388008e
:100ae000e1c38800f0c380000000e800f0c3880084
:100af00040c480000000e0000b003200b1c3800061
:100b00001040800000017800110009008280d800a8
:100b10008000fd000000e00003003a0041c48000b6
:100b200060872100010001000080fa003400f90014
:100b30004f03be004f02be004f01be004f00be007b
:100b40003600f90000400600809fbe003400f80027
:100b500000002000a00188000000fa0085a0a90084
:100b6000a0802000900078000018800000804000e5
:100b70008000d100a080200001087800a080200023
:100b80009000900010188000008040008000d1008c
:100b9000a080200011009800a0802000a0009000fc
:100ba00020188000008040008000d100a08020003c
:100bb00021009800a0802000b00090003018800034
:100bc000008040008000d100a0802000310098000b
:100bd0000080fa003400f9004f00be00004006001b
:100be0003400f800881f780008002000a801880061
:100bf0004f0478000000fa008500a9000080fa0088
:100c00003400f900004006000040da000000fe0059
:100c10000000050003f0a200889fbe008a9fbe006e
:100c20008c1f7800f5000700fc0033006450e100e1
:100c30004f0032006420e1005200320003826c0059
:100c400007003b000905d0000306d000820f5400c6
:100c50000c065d00020039000200320089017800b4
:100c6000030678008582550004003d000003fd0066
:100c70008103fd008502ea008b854200840f72002b
:100c800002003b0060001000e08018006011b80016
:100c90000005eb007a28e1000a0039000600780020
:100ca000c75ddd00f707b200878075002d003700b3
:100cb000828171000a017800610560008180d100a5
:100cc0000080d3008502e900f9ff3b0006044000e4
:100cd0008784480002003b0060041400e0841c008c
:100ce0000988a300070032008a81710082817100a7
:100cf000610164008904d1000884d3008b05e800f9
:100d0000170037000978a30013003a000b00e00039
:100d1000130034008b05e9000804440089844c006a
:100d20000a4474000978a3000d003a000b00e000ab
:100d3000070034008b05e9000804440089844c0056
:100d400001003a000b0020000978a300f7ff3200f1
:100d50000001eb0002003700828171000a01780077
:100d60006b0007000cf0a70001f0a000b4003700f2
:100d70006420e10002003a00838f6c00b40033006d
:100d80000801be000200be00ad003700889fbe0013
:100d90008a9fbe008c1f7800980007009f003300d8
:100da00003866c006450e1002e0032006420e100f4
:100db000330032006150e1002f0032006120e10079
:100dc0003100320085855500eb07b0000900200096
:100dd00008042000050037000804440089844c0002
:100de0000a0031000603430087834b0000015300d3
:100df00081815b00f8ff33000203be000800a00001
:100e00000804440089844c00f6ff3900c639dd002f
:100e10008301730001003200130020008904d10017
:100e20000884d3000998a300050032000800a70039
:100e30000300a0008904d1000884d3008b05e800da
:100e40008904d1000884d3000001eb000281d200a4
:100e50002f00070001f0a1000cf0a70001f0a00096
:100e6000770037006420e100790032000801be00fd
:100e70000200be00f7ff37006120e100740032007d
:100e80006000b800f3ff37000000200001f82700e1
:100e9000f0ff370014002000a40037000001be005e
:100ea000410007000470a70003f0a10003f8a300ad
:100eb00013003a006509b100100032000900350046
:100ec0006928e1000200350001002800000005004b
:100ed00000004000818048008502e900fcff3a00e4
:100ee00000000600f88f4200050035008100d100a7
:100ef0000080d3008502e800fcff3a0000000600f5
:100f00008000eb00000005006011b800a20037006f
:100f100081002000618055000b003d000b00200087
:100f200061fe2f000100e1001d003400828171008c
:100f3000610164008904d1000884d3000000e80046
:100f4000faff3a00710020006100640003007000a5
:100f5000020060000900320061044400e0844c009b
:100f60000988a500050032008b05e8006808e1004b
:100f700002003a008904d1000884d300f20f200057
:100f80000258e10005003d00c75ddd00f907b20031
:100f90008980750008007800000006000bf8270023
:100fa0008b00780000000500c70ade00f107b200e0
:100fb000f50fb20008003200e1cf4200020032001b
:100fc0000170a00024000500810f700001003200b4
:100fd0000408050044000500810f700002003a007b
:100fe000140005008502e9000000400081c04800af
:100ff000fcff3b000170a000240005000004be00bf
:10100000e9ff07000003be000405be000200be00a9
:10101000e5ff0700844f7500000006000200be00d7
:101020006450e100050036006420e1000200360053
:101030000968a30001003a000800be000160a0009a
:101040004f0678004f05be004f04be0000000600aa
:10105000f0ff2f00f1ff2700f9ff3700889fbe0047
:101060008a9fbe008c1f7800e4ff0700ebff33006f
:1010700003866c006450e100240032006420e1002b
:10108000270032006150e100220032006120e100bf
:10109000210032008b854200eb07b1000134b8001b
:1010a000003ab8000804420089844a00013ab800b6
:1010b0000030b8008880400009014a000400330075
:1010c0000000400081804800020149008b05e900d2
:1010d000c909dd0083017000010032001300200007
:1010e000c814de004814dd004709de001200b2001b
:1010f000c808de000884700085ff070001f0a10029
:101100000cf0a70001f0a000cdff37006120e10046
:10111000cfff32000801be000200be00f7ff37001b
:101120006150e100fcff3a00c9ff3700889fbe0014
:101130008a9fbe00841f7800b0ff07004f00780030
:1011400011003300f0ff2f00838f6c0006003b007e
:10115000040565000a00a7000800370009f0a60092
:101160001000200008003700820f5400838f5c00bd
:10117000030039001000200001003e0000002000a4
:1011800009f0a7000000ea004f05be004f04be00b2
:101190000000e00000000600889fbe008a9fbe009d
:1011a0000082700004027100048271002600320087
:1011b0000004be000200be006011b8006b092000f0
:1011c000950220000182cf000a0039000541b100dc
:1011d0000082cf00070039000541b1000982cf002d
:1011e000040039000541b1000882cf000100390038
:1011f0000541b10005425200120032000a003b00d6
:1012000082817100610164008100d1000080d300ff
:101210008984d3000884d3008b05e8000442e800e9
:10122000f7ff3a00070037000804440089844c00a7
:1012300000004800818048008b05e9000442e90075
:10124000f9ff3a0032ff07004f05be004f04be0011
:1012500000000600881f780002047800080178006a
:10126000c4000700080040004f047800000006009a
:101270000000fa00881f780000047800ea81570017
:101280003fb9970088007800a0922000070007006f
:101290000000e000020035008040eb00017478009f
:1012a0004f0478000080fa00000006006200fa0097
:1012b000889fbe008a1f78000005780081047800ae
:1012c000020478008300780080f92f000f004000ae
:1012d000770107009a979f00a9979f000000eb00f5
:1012e000b09f9f001885fb008a04fb000a05ea00f6
:1012f0004f55de0050022000808f54000d00320058
:10130000e10f55000b003a000a01780088007800d0
:101310002f9097009f91970003000100a0979f00d6
:101320000000e0008e0032003f9897000000e800c7
:10133000b09f9f000a04440050022000808f540098
:10134000040032000900e000e6ff3a003f989700f1
:10135000840037000000eb00909f9f00809f9f005b
:10136000f0979f00e0979f00d0979f00c0979f0045
:101370000700370021b021000100500000004000ac
:1013800061af210061007800df98970001007000d4
:10139000d09f9f00880478000904780038457800c1
:1013a0008a00fb0020b02100790007000000e00067
:1013b000f0ff3a00a1c2b300814f55000e003a0081
:1013c000cf8897000180e900c08f9f00100078004f
:1013d000c09f9f000000e00005003d000000ea0003
:1013e000c09f9f005f9897000020a000d09f9f00a3
:1013f0000904e8000f003700c09f9f000000eb00c9
:1014000005003700f2ff2700820f50000200320073
:101410006a01b9000280400009047800880478005d
:10142000b900fb000103b100e98f5000f5ff360061
:10143000c09f9f00e0c2b300984f1000020032002e
:101440000080eb0019003700a0c2b300d84f100095
:1014500007003a00cf8897000180e900c08f9f0005
:1014600010007800a09f9f000804e80010003700db
:101470000000eb00a09f9f00880078000500370067
:10148000f3ff2700830f5000020032006a02b90008
:101490000400410001047800880078003101fb005d
:1014a0000203b100e90f5100f5ff3600a09f9f0035
:1014b000984478008900fb00e0ae2100340007006a
:1014c0000000e000020032000804e80001003700dc
:1014d0008044eb00c97f9f0080c6b30080cf5400da
:1014e00004003a0098cf14000a003a006640500009
:1014f00006003700c0c6b30080cf540005003a0094
:1015000098cf140003003a0065404000c07f9f0060
:101510000804e8001801fb00e3fb2f008f81410065
:1015200081f92f008f804000a0f92f000f004000ac
:10153000e10007000000e00009003a00e1fb2f0095
:101540008f804000a0f92f000f0040001c00070012
:101550000000e000020035000804e80061ff3700e9
:101560000080eb004f0578004f04be000080fa00b9
:10157000000006008001780002003700b1597800b1
:101580000201e9000200e000fcff3a000000060052
:10159000020037000304e00006003200000178007a
:1015a00002007800b041780081cf5100f9ff3a0085
:1015b000010037000001eb00020078000000060087
:1015c0000400fa00889fbe008a9fbe008c1f78002e
:1015d0000004780001067800f80d90007800900073
:1015e00080855500080890008085550018089000f7
:1015f00080855500280890008085550038089000a7
:101600008085550048089000808555000002220022
:1016100090bf9f0000032300a0bf9f000810900010
:101620000028a30015003a000b00e000130034006e
:101630000b0578008a047800e20f5500010036009f
:1016400029002000c801900009017800ee805700b1
:101650005800900003000100500498000000e000d2
:101660008c0032006808900009004000600c98006f
:10167000090555004240a900eeff3c0078019000aa
:101680000200e0000c003400c80190008c007800db
:101690005800900003000100500498008080eb0087
:1016a0000000e0007c003200e80890007800900024
:1016b00000804000600c9800880c90000900e00059
:1016c0001100340009057800e28f54000100360053
:1016d0002a002000c80190000a017800ec80570021
:1016e0005800900003000100500498000000e00042
:1016f00068003200680890000a004000600c980002
:101700008a845400edff3700180990000200e000c1
:101710000c003400c8019000e800900058009000d0
:1017200003000100500498008080eb000000e000fe
:1017300059003200e808900018089000008040002e
:10174000600c9800a80c90000900e0001100340023
:1017500009057800e28f5400010036002a002000bd
:10176000c80190000a017800ec80570058009000f2
:1017700003000100500498000000e0004500320022
:10178000680890000a004000600c98008a845400a9
:10179000edff3700380990000200e0000e00340031
:1017a000e80090001808900080804000c801900078
:1017b0005800900003000100500498008080eb0066
:1017c0000000e00034003200e80890003808900083
:1017d00000804000600c9800c80c90000900e000f8
:1017e0001100340009057800e28f54000100360032
:1017f0002a002000c80190000a017800ec80570000
:101800005800900003000100500498000000e00020
:1018100020003200680890000a004000600c980028
:101820008a845400edff3700081090008000eb0020
:101830000028a300180032000b00e000160034005e
:101840008b04780009057800e28f5400010036000f
:101850002a002000c80190000a017800ee8057009d
:101860005800900003000100500498000000e000c0
:1018700008003200680890000a004000600c9800e0
:101880008a8454004240a900eeff3c008000eb0037
:10189000010037008080eb00010078004f067800df
:1018a0004f05be004f04be000080fa000000060095
:1018b0000108780000000600889fbe008a1f78009b
:1018c00000047800824478000305780070c4b300f7
:1018d00080cf54000a003c0000c0e90080cf5400d3
:1018e0000f003d0050c2b30080cf540035003200dd
:1018f0007c40400080cf540035003a00080037009b
:1019000010c6b30080cf540005003200300035000f
:10191000b0c9b30000c04400e24f50002c003e00ac
:1019200028619000c0c4b300804f510006003a0007
:101930001101780068005100800878005001be0055
:101940004000be000500370011017800640051001e
:10195000800878001000be00a3030700009cbe00b2
:101960000294be00b8009000780090000100e000f2
:1019700002003d00d1c2b30008003700881090007b
:101980000118a30002003200b1c2b3000300370007
:101990000108a3000400320001c2b3000175780001
:1019a0000000e800700498007800900000054500f1
:1019b0006a0498008900fb00080078001000070006
:1019c0000b0037007800900009757800060037009a
:1019d00078009000000545000904e00001003a008d
:1019e00059c2b300094d78000000e8007004980067
:1019f0000000eb004f0578004f04be000000060019
:101a00002f04b000889fbe008a9fbe008c9fbe003e
:101a10008e1f78000007780081f79f003e04be000b
:101a20002e05be005e0890000000e00002003d00b0
:101a300060002000500f98008e00780020fb2f00df
:101a40000f0040003a020700e20f50000a003a007f
:101a500030002000100f9800b1c9b3000ff09700bc
:101a600081404000c09f2100e1cf50000d003e00aa
:101a7000809f21000b0037000000e0000f003400c1
:101a800030002000100f9800b1c9b3000ff197008b
:101a90008140410040a02100e1cf500001003e0004
:101aa00000a02100ee009000b0487800b0687800f7
:101ab0001040780090409800f30037000000e000ec
:101ac00005003a0022fb2f000f01410000197800a9
:101ad0008001eb00e70037006022b8006033b800f7
:101ae0000800be000a01be00870207000000e000f7
:101af00001003d000bf0a200705927009f9897004d
:101b00000088b900026a280013002000e2020700e2
:101b1000640650009c9f9f0013003b006306160064
:101b2000c0ff2f00000666008c01ea00939f9f0013
:101b30008da021000800be000a01be00070037008a
:101b40000c08a300030032003d02be002d03be00be
:101b5000730307000c86d100e88646000c00e00005
:101b6000f7ff3c00180037000c00e00018003200be
:101b7000c0ff2f00000666009c9f9f008da02100e3
:101b80006000b8000200200003ff230007003700b8
:101b90000c08a300030032003d02be002d03be006e
:101ba0005f0307000c86d100e88646000c00e000c9
:101bb000f7ff3c000002be000203be000800be00aa
:101bc0000a01be005a0207000004be000205be0062
:101bd000de08900060c6b3000ff29700804f5200fd
:101be000040032006000200062c4b300824f520043
:101bf00002003a009f9a97006a80420081004000ec
:101c0000f1b79f0001037800f30f53000200340086
:101c100037012000f7b79f0000c3b300c0779f00d3
:101c200056fb2f000f0343000e007800a0b79f0063
:101c3000060778003d0037000800be000a01be001c
:101c4000080307000006be007fb19700680151003d
:101c5000f2b79f004240a9000c0034002d0307009a
:101c60000002be000203be000800be000a01be0062
:101c7000a10307006022b80046782d0077192400e0
:101c8000270307000004be000205be00e80047006d
:101c90008e0020000802be000a03be00b4b79f00f9
:101ca000c5b79f00d6b79f00e7b79f000c01be00e5
:101cb000010478000c003700a4002000050020007b
:101cc000c0fd2f000f004000840107006fa897009f
:101cd000ffa897000fb197009fb1970005c3b3000d
:101ce000056441000001be00e00f5100e08f590083
:101cf000030034000e07e900e10f4700eeff3a0051
:101d0000880078003fb49700cfb497005fb5970084
:101d1000efb597000200370000c3b3008060780081
:101d20000e07e900fcff3b00688740007fb3970087
:101d30000600e000070034006022b8006033b800fd
:101d40000800be000a01be00f40107000000e00028
:101d5000b9ff3c000e0378002fb7970051fb2f000e
:101d60008f804000010353009f9b970067804300d2
:101d7000909f9f00020037000603e9000000e90081
:101d8000010178008200780003c3b300b1cf1100d5
:101d9000f9ff3200909f9f00de09900061c6b300fa
:101da0000ff29700814f52000300320061c4b3006c
:101db000814f520002003a000000e8000a0037009c
:101dc0001000200051c6b3008ff2970081cf52005f
:101dd000050032000540780050c4b2000080fb00ce
:101de0000000e9004f00de0083014000868f5100b3
:101df00001003400860178000300e0001d0035007a
:101e000000c3b300868f510006003d0062c2790016
:101e10006940400041c3b300814f520001003c00c3
:101e2000694050008300e900810041000100370053
:101e3000840178000302e90001037800a1427800e0
:101e400080cf5200faff320091c3b300814f50009f
:101e500001003a00054be8000400e00005003d00e9
:101e60000201e9008301e8001f9b97000603e800d8
:101e7000969f9f008ff397008700fb001f9a9700a3
:101e80000e007800060007004f0778004f06be00de
:101e90004f05be004f04be002f04b1000000060035
:101ea000f0874700889fbe008a9fbe008c9fbe00bf
:101eb0008e1f780000047800814478000205be007f
:101ec000040678000b00e00002003c001b0020002c
:101ed0008ab0210060c6b30080cf54000e003200eb
:101ee00060c4b30080cf54000b00320070c6b30052
:101ef00080cf54000300320070c4b30080cf540080
:101f000081003a00e40f46007f0035005808900039
:101f1000800f56007c003d000c06e80060c6b30050
:101f200080cf54001000320060c4b30080cf540052
:101f30000d003200081090000038a30004003a00a1
:101f400058089000808f550001003d005b0c980000
:101f5000580890000c005000500c980002003b0004
:101f60000000eb00500c980018089000e80090006a
:101f70000c00e00026003c0002c3b3008270780031
:101f80000000e800100c9800d80890000100e00064
:101f900003003c00881090000138a30005003200c7
:101fa000e8009000e2c2b300827078000000e80010
:101fb000100c9800580890008c00ea00810f500027
:101fc00001003d000006ea008c00ea00210c9800a8
:101fd000000646005c0c98008b0f56000100340090
:101fe0000b0678003c0c9800e80090001808900060
:101ff000008040000c0178008a0078005dfd070039
:10200000580890000c0650004c0c980090003700c7
:102010008c8f550018003d00008040000b017800b7
:102020008a00780053fd07001808900000804500e2
:10203000100c98008b0556002b0c9800d8089000c7
:102040000100e00003003c00881090000138a3006c
:1020500006003200e8009000e2c2b300827078000f
:10206000380890000000e800300c980058089000f4
:10207000400c980076003700008040000c0178008a
:102080008a0078003bfd0700180890000000460019
:10209000100c98008c855500d80890000100e000d5
:1020a00003003c00881090000138a30005003200b6
:1020b000e8009000e2c2b300827078000000e800ff
:1020c000100c980058089000808f550001003400d3
:1020d00080057800e800900018089000008040001b
:1020e0008c0045000b01780022fd070018089000c5
:1020f0000b004000100c9800580890008b05500011
:102100002b0c98005200370018089000e80090004f
:102110009a7078000000e800100c9800d808900031
:102120000100e00003003c00881090000138a3008b
:1021300005003200e8009000e2c2b300827078002f
:102140000000e800100c9800580890000000e00023
:10215000100034008b05e900808f55000100340029
:1021600080057800e800900018089000008040008a
:102170008a00e8000b017800fefc070018089000b8
:102180000b004000100c9800580890008b05500080
:102190002b0c9800e8009000180890000080400088
:1021a000095878000007e8000c00e0000400350042
:1021b000b1c2b300014878008e04780004003700f3
:1021c000d1c2b300014878008e0478000c06ea0002
:1021d0007d8557008006eb0009003700a200200033
:1021e0008c00780072805700310007007fb09700a4
:1021f0008fb89700016d7800000678008d06e80022
:102200000c00e000f5ff3c000d00e00009003a0082
:102210008e04780000c3b300805c780005003700ae
:102220008d06e900fc80570061c07e0002c3b30048
:10223000825c40000d00e000f9ff3c00e8009000e7
:10224000180890000080400080845400390c9800e9
:102250000810900074006000f00f50000e003a006b
:10226000980890007800900000804000a808900036
:1022700001004000b808900001004000c80890002c
:1022800001004000f8089000810f500002003d005e
:1022900000805000000c98004f0778004f06be00e9
:1022a0004f05be004f04be000f01b1000000060044
:1022b0008002780001037800110009000203d800b1
:1022c00080017800830a78000299b9000201530066
:1022d000920298000500780000000600881f780030
:1022e0008a9fbe008c9fbe00000478000205be00dd
:1022f0000406be000401be000a00be00e60007009e
:10230000008cbe000c01be000d0207000005550048
:1023100081855d002a0498003b049800080078003d
:102320004f06be004f05be004f04780000000600b7
:10233000889fbe0000047800e68440001900d000a9
:102340004500de00f27f2000820f500010003a00ae
:10235000000ceb00990478006f81640020002000dd
:102360001b003a00210190000200e00018003a0032
:10237000110190000200e00015003a00100020005a
:102380001100e00012003200200020001000370091
:102390000000e00004003a00010078000e00070091
:1023a0000000e00008003c00f20028001901610074
:1023b00001fe2300810c710021c02f00010c4000a0
:1023c0000080eb0002003700000ceb000000eb0087
:1023d0004f04be0000000600e60040001101780036
:1023e00005002800850261006f0161008208780005
:1023f000020032001200200011003700a0019000fe
:10240000120020000300e0000d003a00900190004f
:102410000300e0000a003a001000e00008003a0063
:102420003600370064034000960878008001780089
:10243000530b78009009780004087800700151006f
:10244000110278000400e000f6ff320013003700ac
:1024500064024000140378004f33de0083814100a2
:102460008308730080017800d3037800cf3bde003f
:102470001403780006034300068a730013027800f1
:1024800004024200100378004f33de008609720018
:1024900090017800038841000201e9009101780071
:1024a000ef8f5100eaff36001000370080017800fe
:1024b000530378004f33dd001002d100040873008d
:1024c0006402400094037800cf3bdd001303d10089
:1024d00086897300110378004f33dd009401d10029
:1024e000030a73009108d1000201e800910178000d
:1024f000ff8f5100edff3e00ef8861009188720070
:1025000002007800000006008f1fd10010020700b3
:102510008f87e9000000e00000000600809feb00cc
:102520000b0207008f87e9000000e00000000600b2
:102530002800fa00889fbe008a9fbe008c9fbe00c4
:1025400003866b008f0007006400e1004400320046
:102550006408e1004a0032006100e10046003200f8
:102560006108e10049003200ec0647006000b80055
:102570003d02be003d03be00f48657006011b80066
:102580003d04be003d05be007d0320000b0037006a
:102590000000a0008d06e900130032000402420092
:1025a00085824a0006034b0087834b0000004000f1
:1025b00081804800020149008381490008025200dd
:1025c00089825a000a035b008b835b00f0ff3b00ab
:1025d0000802420089824a000a034b008b834b00a9
:1025e0008d06e900edff3a00848272008682720057
:1025f000f707b20087827200010032001500200048
:102600001e0490003e0b900006035400e63fb0000d
:102610000368a300070032000000a7000500a00027
:102620008301d1000281d3008180d3000080d300d8
:102630000603e8008301d1000281d3008180d3002a
:102640000080d3000002eb000482d20021000700ca
:1026500003f0a1000cf0a70003f0a0005d0037001c
:10266000640247006408e100570032003400be00f5
:102670003401be00f6ff37006108e100520032006d
:102680006011b8006000b800f1ff370003ff2700b9
:1026900002002000fbff3700839f68000100e0007c
:1026a00002003d0060001000e08018000300e00020
:1026b00002003d0060011100e081190010010700d7
:1026c0004f00e00002003b0060001000e0801800b6
:1026d00000000600180020005700200008045300e6
:1026e0000d003d000600200097fc2f000740e10090
:1026f0001e00340084827200610260008301d100f8
:102700000281d3008180d3000080d3000804e80058
:10271000f8ff3a00470020006104600005047400df
:10272000040464000d00320061004000e0804800b5
:1027300060014900e081490003b8a50007003200ac
:102740000603e8006538e10004003a008301d10087
:102750000281d3008180d3000080d300f87f200065
:102760000830e10003003500080378006000b8007d
:102770006011b8004433dd00f300b2008301730040
:1027800000000600680447000294be000094be00ea
:10279000fc0447008694be008494be0009007800c3
:1027a000b401070008007800b20107009900780022
:1027b000814f70000b003b000800be008d01070038
:1027c0004f00b10003003700f3ff2700f2ff2f0096
:1027d0006110b9004f06be004f05be004f04be0099
:1027e0000080fa000000060081037800eef907007f
:1027f0000001be006000b8000478a30013003a0096
:102800006220e10015003e000d0039008301d10077
:102810000281d3008180d3008301d1000281d300e3
:102820008180d3008301d1000281d3008180d30055
:102830000538b000c42add00f300b20083817200c5
:1028400007f0a70003f0a00000000600f3ff270038
:10285000f2ff2f006110b900fbff370003ff2700d4
:10286000f7ff37001400fa00889fbe008a9fbe0061
:102870008c9fbe000004be000205be006800470039
:102880000a90be000890be007a0107000070a70001
:102890000bf0a100304320009e0290008082520085
:1028a000b0fe2f000028e10011003d00b0fc2f0019
:1028b0000028e100150034001e0990008e089000e9
:1028c0007e0090000501b0000201d1008180d3009c
:1028d0000080d3008502e800fbff3a000b00e00017
:1028e000bcff3b0060001000e0801800b9ff37001b
:1028f000f0ff2f00f1ff27000b00e000b5ff3b00c9
:102900000100280000002000b2ff37006000b8007e
:10291000b0ff37004f89de00820178007c0137006c
:102920002800fa00889fbe008a9fbe008c9fbe00d0
:1029300003866b0093ff07000028a30064003a00a1
:102940000128a30067003a000008a30062003a00d3
:102950000108a30065003a001e009000be08900028
:1029600081064000ed3fb100f4805700ee01900079
:10297000111ab8008e099000311bb8009e09900012
:10298000311cb800511db800f485570046000700ff
:10299000fe0190003a0007008b85e8003e0007002a
:1029a0008e09900040000700ee01900034000700ff
:1029b0008b85e800380007008e0990004000070072
:1029c0009e0990001b18b800890440000a85480041
:1029d000fe019000340007008b85e80038000700f6
:1029e000ee019000300007008e0990001b18b8001f
:1029f000890440000a8548000a98a30008003a00ac
:102a00000402420085824a0006034b0087834b0084
:102a100008044c0089844c000a054d008d06e9002d
:102a200084827200850273004c3add0085027200d8
:102a30000100320015002000443ade001400b2000c
:102a40004538de00cb45dd000b007000c540de00e0
:102a5000cb4ddd008b8070004549de00cb55dd009d
:102a60000b017100c551de000d03780019ff07004e
:102a700003f0a1000cf0a70003f0a00055ff370001
:102a80001b18b8008502400006834800e0834b0015
:102a900060044c00070037001b18b8000603400014
:102aa00087834800faff37001b18b80087034000ef
:102ab00008844800e0844c0060054d0000000600da
:102ac0001b18b8000804400089844800faff37004a
:102ad0000108a3003cff3a005800be005801be00a8
:102ae000e3ff37000008a30037ff3a00090478002d
:102af000f9ff37000000000007f0a20016003700c1
:102b00006022b800060220000000d0008180d200c0
:102b10000482d2008582d2000000a000020252008e
:102b200083825a00030031000202420083824a007d
:102b30000000a1000603e900f3ff3a0000000600d0
:102b4000020ab900001bb9000200b800810042006f
:102b500081004300000006002800fa00889fbe00a4
:102b60008a9fbe008c9fbe0007067800878669009a
:102b70000c003b00030478008704780008f0a100f3
:102b800009f0a100840f5000858f5800860f59006e
:102b9000890f5c00030033000cf0a20001003a0032
:102ba0000cf0a100f7fe07006400e1005f003200b6
:102bb000780147006408e100610032006c014700c1
:102bc000748557003200be001201be003a04be00f8
:102bd0001a05be001e039000be0a90008503530034
:102be00006003d000004fd008104fd000205fd001b
:102bf0008305fd008703ea00050378000df8a300b4
:102c00000400320060041400e0841c0060051d0014
:102c1000e0851d006022b8007d0320000d38e10032
:102c20008006eb000b0039004433dd00f300b200f6
:102c30008301730039003700848272000d0278002e
:102c4000e10664008b85d1000a85d3008984d30016
:102c50000884d3008703e900f7ff3b000800400029
:102c6000898048000a0149008b81490004003b002b
:102c700060001000e080180060011900e081190078
:102c80000358a300090032008d8272008482720012
:102c9000610260008301d1000281d3008180d300f2
:102ca0000080d3000603e8001b0037000348a300a0
:102cb00017003a000600e000170034000603e900a0
:102cc0000d00a30000004800818048000201490077
:102cd000838149000348a3000f003a000600e0008a
:102ce000090034000603e90000004000818048002c
:102cf000020149008381490001003a000003eb0012
:102d00000348a300f5ff32006022b800020037003c
:102d100084827200618266006efe070003f0a100eb
:102d20000cf0a70003f0a000aafe370064014700e2
:102d30006408e10002003a000df8a300a2fe3a0088
:102d40003200be001201be00a2fe370000000000eb
:102d5000889fbe008a9fbe008c9fbe000404be00f8
:102d60000605be00809fbe00829fbe002f000700a8
:102d7000040678000800be000a01be002b00070010
:102d8000840678004f03be004f02be008d4f7600d0
:102d90007fb0970013003300f0ff2f008b8f6b0084
:102da00006003b000d0666000c00a7000a00370075
:102db00007f0a600100020000a003700880f52001c
:102dc000898f5a008a0f5b008b8f5b0003003900ec
:102dd0001000200001003e000000200007f0a700c6
:102de0000000ea004f06be004f05be004f04be00c3
:102df00000000600e48240001078a30007003200c3
:102e0000640240001178a3003400be001401be002b
:102e1000040032000330a700000006003500be00a9
:102e20001501be000330a0000000060005ff2700ca
:102e300005826100070032000428e1000100320031
:102e4000240005000600070001003a0044000500c8
:102e50000408050002000700f9ff3a00140005000d
:102e60006f8261008102700085027100850272002c
:102e700000000600800078005002be005003be0033
:102e80004439de00f700b200f37f20000301610047
:102e9000090032000218e10016003a0085017200b4
:102ea00083017300838173000008200015003a003d
:102eb0004000200013003700850172008301730079
:102ec0008381730005003a0004a8be0006a8be0076
:102ed000100020000b0037000201e900040242004c
:102ee00085824a0006034b0087834b000748a300f6
:102ef000f9ff32000740a00004a8be0006a8be00eb
:102f00002000200080009800920098000000060039
:102f1000881f7800030478000300e00007003d00ec
:102f200060001000e080180060011900e0811900c5
:102f300002003b0001f02d000300370004000700f1
:102f400008f0a70003f0a0004f047800000006007e
:102f5000889fbe000082700004027100048271002c
:102f60002400320036432000c50020008383cf00b8
:102f70000a0039000541b1008283cf000700390003
:102f80000541b1008183cf00040039000541b10043
:102f90008083cf00010039000541b10085c3530093
:102fa0006022b800120032000a003b0084827200e6
:102fb000610260008301d1000281d3008180d300cf
:102fc0000080d3000603e8008743e800f7ff3a00db
:102fd00007003700000040008180480002014900de
:102fe000838149000603e9008743e900f9ff3a00bd
:0c2ff000b8fd07004f04be000000060002
:020000040000fa
:102ffc00436f0000756e000074650000723a0000ab
:10300c00202500002e330000660d00000a00000091
:10301c00546900006d650000723100000000000072
:10302c002b490000504400002c0000000000000060
:020000040000fa
:10303c000200fa00000f7800409980000000e000c8
:10304c001400320031998000402a21000080400099
:10305c00904078001e00780001487800309980007c
:10306c000000e8003099880031998000f0072000ba
:10307c00808f5000020036000000eb003099880071
:10308c00409980000000e900409988001000200061
:10309c00010037000000eb000080fa000000060081
:1030ac000200fa00000f780070b980000000e00008
:1030bc001400320061b98000a03221000080400071
:1030cc00904078001e0078000148780060b98000bc
:1030dc000000e80060b9880061b98000f03f200072
:1030ec00808f5000020036000000eb0060b98800b1
:1030fc0070b980000000e90070b988001000200051
:10310c00010037000000eb000080fa000000060010
:10311c000200fa000000eb00000f780005003700f9
:10312c00402a21001e0040008040eb00014878003e
:10313c001e0fe800f00720009e007800808f5000e2
:10314c00f7ff34000000eb00309988000000eb0022
:10315c00209988000000eb00409988000080fa005c
:10316c00000006000200fa000000eb00000f7800df
:10317c0005003700a03221001e0040008040eb000b
:10318c00014878001e0fe800f03f20009e007800f8
:10319c00808f5000f7ff34000000eb0060b988000e
:1031ac000000eb0050b988000000eb0070b98800fb
:1031bc000080fa00000006000800fa0020079800c2
:1031cc003107980014c0b3002e019000be0190008e
:1031dc000058220001002000800f5100818f5900ff
:1031ec0001003e000042eb00044f7800761107000e
:1031fc002135800000fe2f0000806000c000b3006d
:10320c0020358800c982a80061368000f00f2e009e
:10321c008080600000302000010070006036880063
:10322c00c9a2a9007111070021e2a80021a2a900de
:10323c002182a9002162a90001118000f0cf2f008a
:10324c00008060000011880020e2a90020c2a900c3
:10325c0020a2a9002082a9009e40780061c06000d5
:10326c000080fb00610060004300dd000111800064
:10327c000130a100010070000011880001118000d4
:10328c0090ff2f0000806000001188002002a90030
:10329c001e4078000004e000110032002e01900066
:1032ac00be0190004218dd00ce10de0081007000df
:1032bc004210dd0011f707000001be0000402200a3
:1032cc0041b72400aef607000200200003f82300eb
:1032dc004df60700eef607000000780010003700ee
:1032ec002e019000be0190004418dd00cc10de00d1
:1032fc00810070004410dd0000f707000001be00e3
:10330c000040220041b724009df607000200200077
:10331c0003f823003cf60700ddf6070000007800f8
:10332c00401188002342a8002362a90023e2a900cf
:10333c0023a2a90022e2a90022c2a9009560a8003c
:10334c009580a9002342a800100280004500de00f1
:10335c00674060000080fb0010079800110280009d
:10336c00000e200001007000100288000000000018
:10337c0002042000a1822000a0862000480f070034
:10338c000220200091872000a0a72000440f0700f6
:10339c001e00900000407800674060000080fb0039
:1033ac00670060004500dd0012028000f1f12f0083
:1033bc008100610001007000100288000000000014
:1033cc000080fa00000006000800fa0020079800b0
:1033dc003107980014c0b3002e019000be0190007c
:1033ec000058220001002000800f5100818f5900ed
:1033fc0001003e000042eb00044f7800f210070081
:10340c003135800000fe2f0000806000e000b3002a
:10341c0030358800c9c2a80071368000f00f2e002c
:10342c008080600000502000010070007036880021
:10343c00c9e2a900ed10070031e2a80031a2a900f1
:10344c003182a9003162a90081118000f0cf2f00d8
:10345c00008060008011880030e2a90030c2a90011
:10346c0030a2a9003082a9009e40780061c06000a3
:10347c000080fb00610060004300dd0081118000d2
:10348c000130a100010070008011880081118000c2
:10349c0090ff2f0000806000801188003002a9008e
:1034ac001e4078000004e000110032002e01900054
:1034bc00be0190004218dd00ce10de0081007000cd
:1034cc004210dd008df607000001be000040220016
:1034dc0041b724002af607000200200003f823005d
:1034ec00c9f507006af607000000780010003700e5
:1034fc002e019000be0190004418dd00cc10de00bf
:10350c00810070004410dd007cf607000001be0055
:10351c000040220041b7240019f6070002002000e9
:10352c0003f82300b8f5070059f6070000007800ef
:10353c00c01188003342a8003362a90033e2a9000d
:10354c0033a2a90032e2a90032c2a90097c0a80098
:10355c0097e0a9003342a800100280004500de006d
:10356c00674060000080fb0010079800110280008b
:10357c00000e200001007000100288000000000006
:10358c000240200081a8200080e82000c40e070023
:10359c000240200071e9200080292100c00e0700a4
:1035ac001e00900000407800674060000080fb0027
:1035bc00670060004500dd0012028000f1f12f0071
:1035cc008100610001007000100288000000000002
:1035dc000080fa00000006000800fa00300798008e
:1035ec000000eb00000f7800be009000110798005f
:1035fc00040037001e0fe8001e0090000000e800d9
:10360c00100798001e009000104078000004e000a5
:10361c00f8ff3a0000548000012020000080500088
:10362c009e0f500002003e000000eb002d00370002
:10363c00be009000110798001e0037001002800099
:10364c004500de00674060000080fb00200798000a
:10365c0011028000000e2000010070001002880092
:10366c00000000001e009000104078009e009000aa
:10367c008100e8001107980080407800a0a7200086
:10368c009f0e07002e0090000040780067406000fd
:10369c000080fb00670060004500dd001202800026
:1036ac00f1f12f0081006100010070001002880010
:1036bc00000000001e009000104078000004e000a4
:1036cc00deff3a00a10480000000210000806000b1
:1036dc000000e00002003a008580a8009580a80058
:1036ec001e0078000080fa00000006000800fa00b6
:1036fc00300798000000eb00000f7800be0090002f
:10370c0011079800040037001e0fe8001e009000ff
:10371c000000e800100798001e0090001040780090
:10372c000004e000f8ff3a00005480000120200063
:10373c00008050009e0f500021003e000000eb0066
:10374c002c003700100280004500de00674060004e
:10375c000080fb002007980011028000000e200062
:10376c000100700010028800000000003e00900074
:10377c0010407800be0090008100e80031079800ee
:10378c0080407800802921005d0e07002e009000fb
:10379c0000407800674060000080fb00670060001c
:1037ac004500dd0012028000f1f12f008100610064
:1037bc0001007000100288000000000001003700ba
:1037cc00000000003e009000104078000004e00073
:1037dc00dcff3a00b104800000002800008060008b
:1037ec000000e00002003a0087e0a80097e0a80083
:1037fc001e0078000080fa00000006000800fa00a5
:10380c002007980031079800005480000120200008
:10381c00808050003e009000808f500002003e00df
:10382c000000eb002d0037000000eb00000f7800cb
:10383c001e003700100280004500de00674060006b
:10384c000080fb001007980011028000000e200081
:10385c000100700010028800000000001e007800bb
:10386c00ae0090000080400010407800804078004e
:10387c00a0a72000220e07001e0090000040780038
:10388c00674060000080fb00670060004500dd00c1
:10389c0012028000f1f12f00810061000100700024
:1038ac0010028800000000001e0fe8009e00780047
:1038bc003e009000808f5000deff3900a104800094
:1038cc0000002100008060000000e00002003a00cf
:1038dc008580a8009580a8003e0090000080fa002a
:1038ec00000006000800fa00300798003e00900027
:1038fc009000900000548000022020000000510035
:10390c00808f5000020039000000eb0033003700bc
:10391c003e00900090007800110798000000eb002a
:10392c00000f78001f003700100280004500de00f9
:10393c00674060000080fb002007980011028000a7
:10394c00000e200001007000100288000000000032
:10395c001e009000104078009e0090008100e8004e
:10396c001107980080407800a0a72000e40d070004
:10397c002e00900000407800674060000080fb0043
:10398c00670060004500dd0012028000f1f12f009d
:10399c00810061000100700010028800000000002e
:1039ac001e0fe8009e0078003e0090001000900072
:1039bc00808f5000dcff3900a10480000000210042
:1039cc00008060000000e00002003a008580a80042
:1039dc009580a8003e009000100090000080fa0036
:1039ec00000006000400fa002047980001548000f3
:1039fc00f01f2000808f5000020036000000eb000a
:103a0c0021003700100280004500de006740600096
:103a1c000080fb00000f780011028000000e2000d7
:103a2c00010070001002880000000000ae40900001
:103a3c00a0a72000b20d07001e00780000407800ff
:103a4c00674060000080fb00670060004500dd00ff
:103a5c0012028000f1f12f00810061000100700062
:103a6c001002880000000000a1048000000021006a
:103a7c00008060000000e00002003a008580a80091
:103a8c009580a800100020000080fa0000000600bd
:103a9c000800fa002007980031079800f094800085
:103aac0001402000808050003e009000808f50002c
:103abc0002003e000000eb002d0037000000eb0080
:103acc00000f78001e003700100280004500de0059
:103adc00674060000080fb00100798001102800016
:103aec00000e200001007000100288000000000091
:103afc001e007800ae00900000804000104078005e
:103b0c0080407800802921007d0d07001e00900068
:103b1c0000407800674060000080fb006700600098
:103b2c004500dd0012028000f1f12f0081006100e0
:103b3c000100700010028800000000001e0fe80059
:103b4c009e0078003e009000808f5000deff390010
:103b5c00b104800000002800008060000000e0003c
:103b6c0002003a0087e0a80097e0a8003e00900011
:103b7c000080fa00000006000800fa0030079800e8
:103b8c003e00900090009000f094800002402000d5
:103b9c0000005100808f5000020039000000eb0043
:103bac00330037003e009000900078001107980019
:103bbc000000eb00000f78001f003700100280009f
:103bcc004500de00674060000080fb002007980085
:103bdc0011028000000e200001007000100288000d
:103bec00000000001e009000104078009e00900025
:103bfc008100e8001107980080407800802921009e
:103c0c003f0d07002e0090000040780067406000d8
:103c1c000080fb00670060004500dd0012028000a0
:103c2c00f1f12f008100610001007000100288008a
:103c3c00000000001e0fe8009e0078003e0090007f
:103c4c0010009000808f5000dcff3900b104800020
:103c5c0000002800008060000000e00002003a0034
:103c6c0087e0a80097e0a8003e00900010009000ac
:103c7c000080fa00000006000400fa0020479800bb
:103c8c00f1948000f03f2000808f5000020036003d
:103c9c000000eb0021003700100280004500de0020
:103cac00674060000080fb00000f7800110280006c
:103cbc00000e2000010070001002880000000000bf
:103ccc00ae409000802921000d0d07001e007800e9
:103cdc0000407800674060000080fb0067006000d7
:103cec004500dd0012028000f1f12f00810061001f
:103cfc00010070001002880000000000b104800078
:103d0c0000002800008060000000e00002003a0083
:103d1c0087e0a80097e0a800100020000080fa00bf
:103d2c00000006000000fa000000000000548000b3
:103d3c000000e000fdff3a0011118000002020007f
:103d4c00008060000000e000f8ff3a000080fa00fc
:103d5c00000006000000fa0000000000f094800053
:103d6c000000e000fdff3a009111800000202000cf
:103d7c00008060000000e000f8ff3a000080fa00cc
:103d8c00000006000200fa00000f7800e5ff0700b3
:103d9c000b003700000000001111800000202000f3
:103dac00008060000000e000fbff3a001e0078007d
:103dbc00104078000000fb00201188001e0fe80066
:103dcc001e007800104078000004e000f1ff3a007b
:103ddc000080fa00000006000200fa00000f7800d4
:103dec00dcff07000b003700000000009111800081
:103dfc0000202000008060000000e000fbff3a0083
:103e0c001e007800104078000000fb00a011880014
:103e1c001e0fe8001e007800104078000004e0003f
:103e2c00f1ff3a000080fa00000006000200fa00e0
:103e3c00004f7800bbff07001e80fb00201188009c
:103e4c000080fa00000006000200fa00004f780023
:103e5c00c0ff07001e80fb00a01188000080fa0044
:103e6c00000006000600fa001007980021079800d1
:103e7c00acff07000000eb00000f78000d003700ce
:103e8c000000000011118000002020000080600064
:103e9c000000e000fbff3a001e0078009e0090003e
:103eac0000804000104078000080fb00201188004a
:103ebc001e0fe8009e0078002e009000808f5000ae
:103ecc00efff39000080fa00000006000600fa003f
:103edc0010079800210798009eff07000000eb00d8
:103eec00000f78000d0037000000000091118000d9
:103efc0000202000008060000000e000fbff3a0082
:103f0c001e0078009e009000008040001040780059
:103f1c000080fb00a01188001e0fe8009e007800b6
:103f2c002e009000808f5000efff39000080fa00c7
:103f3c00000006000000fa00101180006200600012
:103f4c000000e000020032002222a900010037002c
:103f5c000000000010118000610060000000e00013
:103f6c00fcff320030118000004078000080fa0025
:103f7c00000006000000fa00901180006200600052
:103f8c000000e000020032003222a90001003700dc
:103f9c000000000090118000610060000000e00053
:103fac00fcff3200b0118000004078000080fa0065
:103fbc00000006000400fa00000f780011079800ba
:103fcc009e007800114088009e00900041c488003b
:103fdc000080fa00000006000200fa00000f7800d2
:103fec009e00780001c488000080fa0000000600e2
:103ffc000200fa00000f78009e00780051c488007f
:10400c000080fa00000006000200fa00000f7800a1
:10401c009e00780011c488000080fa0000000600a1
:10402c000200fa00000f78009e00780021c488007e
:10403c000080fa00000006000200fa00000f780071
:10404c009e00780061c488000080fa000000060021
:10405c000200fa00000f78009e00780031c488003e
:10406c000080fa00000006000200fa00000f780041
:10407c009e00780071c488000080fa0000000600e1
:10408c000000fa0090c480000000e80090c4880092
:10409c0091c48000703e2000808f50001c003600c0
:1040ac000000eb0090c48800a0c480000000e80071
:1040bc00a0c48800a1c48000b0032000808f5000f1
:1040cc00130036000000eb00a0c48800b0c48000d0
:1040dc000000e800b0c48800b1c48000b003200028
:1040ec00808f50000a0036000000eb00b0c488003e
:1040fc00c0c480000000e800c0c48800c0c48000b8
:10410c00f70f5000020036000000eb00c0c488001e
:10411c000080fa00000006000000fa0000017800a0
:10412c000089210082007800b0187800a010780077
:10413c00e480400064004000b0187800a0107800c3
:10414c00e480400064004000900878008180e80022
:10415c000080e800020078000080fa0000000600f1
:10416c000400fa00004f780011479800224798008d
:10417c001e80fb00c0c488001e4090000080fb0025
:10418c00b0c488002e4090000080fb00a0c48800c2
:10419c000000eb0090c488000000eb0080c4880095
:1041ac000080fa00000006000000fa00889fbe00a4
:1041bc008a9fbe00d0c38000e1c380004ff307008c
:1041cc000004be00000880008000eb004bf30700e9
:1041dc000005be00100880008000eb0047f30700cc
:1041ec000001be000a00be00e5f207000001be009f
:1041fc000800be0085f207004f05be004f04be004c
:10420c000080fa00000006000000fa00d0c3800015
:10421c00e1c38000823e20000289b90002017800cf
:10422c006002b9008401780003014100833e200044
:10423c000300b800010141008200780002088000f0
:10424c000201d1008001eb00000041008180490097
:10425c000080fa00000006000000fa00d0c38000c5
:10426c00e1c380000080fa00000006000200fa00a2
:10427c00c0c38000000f78000000eb00c0c38800b2
:10428c001e007800004078000080fa000000060054
:10429c000000fa0004c1a9000421a9002108800033
:1042ac00f0fc2f00008060000040a0002008880077
:1042bc00007d2000100888000021ef009460a80009
:1042cc0005e1a8000080fa00000006000200fa00d8
:1042dc00000f78009e007800014088000080fa00f2
:1042ec00000006000000fa000000eb0010c488007b
:1042fc000000eb0000c488000000eb0030c4880014
:10430c000000eb0020c48800e1ff07000080fa00e9
:10431c00000006000a00fa00604798004107980068
:10432c00608129002007980005c8bf000004e00048
:10433c0005003d000568ef000668ef000768ef0018
:10434c000868ef000968ef0009c8bf000080fb0097
:10435c00e10f500027003200e10f500003003c0039
:10436c000000e00006003200a9003700e20f500008
:10437c0030003200e30f50006d003200a400370013
:10438c0006c8bf000080fb00ae009000008040001b
:10439c00904078006e40900080cf500012003a00a0
:1043ac0005c8bf008080fb00ee419000a291210067
:1043bc0003f178000040e80005e8b70006c8bf002c
:1043cc000040e80006e8b70006c8bf00e44f500004
:1043dc00880036000668ef0009c8bf000040e800fe
:1043ec0009e8b7008a0037000568ef000668ef009f
:1043fc008700370005c8bf008080fb00ee419000ad
:10440c00a291210003f178000040e80005e8b70014
:10441c00ee409000c0c2b30080cf500077003a004d
:10442c000768ef0009c8bf000040e80009e8b700c2
:10443c007700370005c8bf008080fb00ee4190007c
:10444c00a291210003f178000040e80005e8b700d4
:10445c0007c8bf008080fb00ee419000a2992100ac
:10446c0003f178000040e80007e8b700ee40900048
:10447c00a0c3b30080cf500062003a0007c8bf0051
:10448c000040e90007e8b70007c8bf000080fb0048
:10449c00a19921000041eb00827078000868ef00c0
:1044ac0010002000000f78001400370007c8bf0070
:1044bc000080fb00a1992100614078000080fb0086
:1044cc000003b100004078009e0078008140780025
:1044dc008180fb000088b9000000780080407800e3
:1044ec0008c8bf0000c0400008e8b7001e007800f4
:1044fc006a00b90000007800000f780007c8bf0000
:10450c008080fb008100ea00cf08de00814078004b
:10451c000040e90007e8b7000104e000e3ff3a00bf
:10452c0009c8bf000040e80009e8b70038003700b0
:10453c0005c8bf008080fb00ee419000a2912100d5
:10454c0003f178000040e80005e8b70008c8bf0098
:10455c000040e90008e8b70008c8bf000004e0000c
:10456c002a003a000000eb00100798000c003700fe
:10457c004e009000900078001e00900000804000db
:10458c00a29121009e009000810041009140780092
:10459c00014878001e0090000000e8001007980009
:1045ac0005c8bf008080fb001e009000808f50006b
:1045bc00efff3d004e009000900078001e00900030
:1045cc00008040008040eb00014878001e00900005
:1045dc000000e900800078004e0090001100980067
:1045ec000968ef000568ef000668ef001000200076
:1045fc000800370000000000050037000000000034
:10460c00030037000000000001003700000000002c
:10461c000000eb000080fa00000006000600fa0023
:10462c00204798002107980004c8bf000004e00050
:10463c0001003d000468ef0004c8bf008080fb004f
:10464c00ae419000a289210003f178000040e800ff
:10465c0004e8b7002e409000ea4f50001d003a00cd
:10466c000000eb00000f7800090037002e009000ce
:10467c00900078001e00780000804000a189210085
:10468c009e80400091407800014878001e0fe800a1
:10469c0004c8bf000080fb009e0f5000f3ff3c00dd
:1046ac002e009000900078001e00780000804000e2
:1046bc008040eb000148780004c8bf008080fb00fc
:1046cc002e009000110098000468ef0010002000ec
:1046dc00010037000000eb000080fa00000006002b
:1046ec00b600fa0000c480000000e0002700320091
:1046fc00100280004500de00674060000080fb0077
:10470c00000f780011028000000e200001007000e4
:10471c0010028800000000006a00470044fa0700fd
:10472c00100798001e007800004078006740600079
:10473c000080fb00670060004500dd001202800075
:10474c00f1f12f008100610001007000100288005f
:10475c00000000001e0090000000e0000b00320082
:10476c0010c0b300504f98000040eb00404f980031
:10477c006a0047007007980010002000000f980096
:10478c0001c480006c0047000100010020c48000bf
:10479c000000e00027003200100280004500de001f
:1047ac00674060000080fb00200798001102800029
:1047bc00000e2000010070001002880000000000b4
:1047cc006a00470036fa0700100798002e00900088
:1047dc0000407800674060000080fb0067006000cc
:1047ec004500dd0012028000f1f12f008100610014
:1047fc000100700010028800000000001e009000f4
:10480c000000e0000b00320020c0b30030579800cd
:10481c0010c0b300205798006a004700200f980082
:10482c0010002000300f980021c480007200470057
:10483c000100010010c480000000e00012003200f2
:10484c0080872000104078000004e0000e00320049
:10485c0010c0b300105f980020c0b300005f980038
:10486c000000eb00500f98000000eb00600f980068
:10487c0011c48000780047000100010080872000ef
:10488c008040eb000148780030c480000000e0005c
:10489c001200320060e92000104078000004e000b3
:1048ac000e00320020c0b300705f980030c0b3001f
:1048bc00605f98000000eb00001798000000eb0010
:1048cc001017980031c480007e00470001000100e1
:1048dc0060e920008040eb00014878001002800065
:1048ec004500de00674060000080fb003007980048
:1048fc0011028000000e20000100700010028800e0
:10490c00000000006a00470080007800a0862000ac
:10491c00290a0700100798003e009000004078001c
:10492c00674060000080fb00670060004500dd0010
:10493c0012028000f1f12f00810061000100700073
:10494c00100288000000000050c480000000e0004d
:10495c00170032001e0090000000e000140032002e
:10496c0010c0b3005067980040c0b3004067980077
:10497c00600320000e004000301798000000eb0090
:10498c00401798002e489000410220008e80400075
:10499c008180e80021ff07000000e00004003200e5
:1049ac0051c48000400220000e00400001000100b4
:1049bc00100280004500de00674060000080fb00b4
:1049cc004007980011028000000e200001007000ca
:1049dc0010028800000000006a0047008000780088
:1049ec0080e82000f4090700100798004e009000a2
:1049fc0000407800674060000080fb0067006000aa
:104a0c004500dd0012028000f1f12f0081006100f1
:104a1c0001007000100288000000000060c48000db
:104a2c000000e000170032001e0090000000e000c3
:104a3c001400320020c0b300306f980050c0b30097
:104a4c00206f9800600320000e0040006017980053
:104a5c000000eb00701798002e489000a102200077
:104a6c008e8040008180e800ecfe07000000e00032
:104a7c000400320061c48000a00220000e0040003f
:104a8c000100010070c480000000e000170032003b
:104a9c001e0090000000e0001400320020c0b300a3
:104aac001077980060c0b300007798006003200076
:104abc000e004000101f98000000eb00201f980013
:104acc002e489000010320008e8040008180e80079
:104adc0010fe07000000e0000400320071c48000ea
:104aec00000320000e00400001000100f0c3800014
:104afc000000e0001000320061fd0700f105070026
:104b0c0070080700e302070018070700a00a070057
:104b1c004c090700f0c380000000e900f0c38800d6
:104b2c00004080000000e0000300320000408000e4
:104b3c000000e900004088000080fa000000060038
:104b4c000400fa00100798000000eb00000f78003a
:104b5c00000000001e0078009e00900000804000c5
:104b6c00104078000080fb000000ea004f00de00df
:104b7c00004078001e0fe8000004e000f5ff3a004a
:104b8c001e00e9000080fa00000006000600fa0092
:104b9c0010079800210798000000eb00000f780028
:104bac00090037001e007800ae0090000080400025
:104bbc009e0078001e019000810041009140780019
:104bcc00014878001e0fe8001e0078009e0090003f
:104bdc0000804000104078000004e000f1ff3a0033
:104bec001e007800ae009000008040008040eb007a
:104bfc00014878002e0090000080fa0000000600aa
:104c0c000800fa0010079800210798003207980056
:104c1c000000eb00000f78000000eb00000f7800a4
:104c2c000a0037001e007800be0090000080400093
:104c3c009e0078001e019000810041009140780098
:104c4c00014878001e0fe8001e0fe8002e009000af
:104c5c009e007800808f5000f2ff35001e00780017
:104c6c00be009000008040008040eb0001487800be
:104c7c003e0090000080fa00000006000c00fa00d4
:104c8c0040079800510798005e009000acff0700a9
:104c9c00200798004e009000a9ff070030079800ed
:104cac00be0090002e009000808f500002003d004e
:104cbc000080eb00240037000000eb00000f7800b0
:104ccc000000eb00100798000000eb00000f7800cc
:104cdc00180037001e007800ce00900000804000c5
:104cec00904078001e0090005e0190000000410092
:104cfc001040780080cf50000b003a001e0090004e
:104d0c000000e800100798009e0090002e00900014
:104d1c00808f5000060035009e00e8002e009000a9
:104d2c0000805000080037000000eb0010079800ce
:104d3c001e0fe8003e0090009e007800808f50000f
:104d4c00e4ff35000080eb000080fa000000060054
:104d5c000e00fa004007980051079800620798006f
:104d6c006e00900076ff070020079800de00900090
:104d7c0031079800be0090002e009000808f5000ec
:104d8c0002003d000080eb00240037000000eb0027
:104d9c00000f78000000eb00100798000000eb00fb
:104dac00000f7800180037001e007800ce0090002d
:104dbc0000804000904078001e0090006e01900032
:104dcc00000041001040780080cf50000b003a00ea
:104ddc001e0090000000e800100798009e00900054
:104dec002e009000808f5000060035009e00e800d9
:104dfc002e00900000805000080037000000eb00ef
:104e0c00100798001e0fe8003e0090009e007800ee
:104e1c00808f5000e4ff35000080eb000080fa002a
:104e2c00000006000e00fa00500798006107980079
:104e3c006e00900042ff0700300798005e00900063
:104e4c003fff070040079800ce0090003e00900006
:104e5c00808f500002003d000080eb0027003700df
:104e6c000000eb00000f78003e0090000000e9000d
:104e7c00100798000000eb00200798004e009000ef
:104e8c00000fe900190037001e007800de009000ca
:104e9c0000804000904078001e0090006e01900051
:104eac00000041001040780080cf50000c003a0008
:104ebc001e0090000000e900100798002e009000e2
:104ecc000000e80020079800ae0090003e00900023
:104edc00808f5000040035001e007800070037005a
:104eec000000eb00200798001e0fe9001e00780060
:104efc000000e000e4ff3d000080eb000080fa00c1
:104f0c00000006000600fa00100798002107980020
:104f1c000000eb00000f78000000eb00000f7800a1
:104f2c00100037001e0078009e00900000804000aa
:104f3c009040780000c2b30080cf500008003200cf
:104f4c001e0078009e009000008040009040780089
:104f5c002e009000014878001e00780008003700f1
:104f6c001e0fe8001e0078009e009000008040009c
:104f7c00104078000004e000eaff3a000000eb006b
:104f8c000080fa00000006000600fa0010079800e6
:104f9c00414798000000eb00000f78000000eb0088
:104fac00000f78000a0037001e0078009e00900069
:104fbc0000804000904078004e40900080cf500020
:104fcc0002003a001e007800080037001e0fe800af
:104fdc001e0078009e009000008040001040780079
:104fec000004e000f0ff3a000080eb000080fa00c3
:104ffc00000006000800fa0020079800614798009e
:10500c002e009000cefe0700100798001e009000a6
:10501c00000fe9000a0037001e007800ae00900077
:10502c0000804000904078006e40900080cf50008f
:10503c0002003a001e007800080037001e0fe9003d
:10504c001e007800ae0090000080400010407800f8
:10505c000004e000f0ff3a000080eb000080fa0052
:10506c00000006000800fa0020079800310798009d
:10507c002e009000b2fe0700100798001e00900052
:10508c00000fe900100037001e007800ae00900001
:10509c00008040009040780000c2b30080cf5000e8
:1050ac00080032001e007800ae0090000080400026
:1050bc00904078003e009000014878001e00780077
:1050cc00090037001e0fe9001e007800ae009000aa
:1050dc0000804000104078000004e000eaff3a0035
:1050ec001e0090000000e9000080fa00000006009d
:1050fc000c00fa002007980031079800420798002e
:10510c00530798000000eb00000f78002e00900071
:10511c008bfe0700100798004e0090000000e00086
:10512c0015003d000c0037001e007800de009000da
:10513c0000804000be0090002e01900081004100d4
:10514c0091407800014878001e0fe8003e00900066
:10515c000000e800300798003e009000ae00900080
:10516c0000804000104078000004e000eeff3a00a0
:10517c005e00900023003700be0090004e009000af
:10518c00808040001e009000808f5000040034008e
:10519c005e0090008040eb0001487800180037005a
:1051ac000000eb00000f78000c0037001e007800a8
:1051bc00de00900000804000be0090002e019000a8
:1051cc008100410091407800014878003e00900039
:1051dc000000e800300798001e0fe8004e00900019
:1051ec009e007800808f5000f0ff35001e00780084
:1051fc00de009000008040008040eb000148780009
:10520c005e0090000080fa00000006000e00fa001c
:10521c0030079800410798005207980063079800e0
:10522c003e00900046fe070020079800ce0090003c
:10523c002e009000808f500019003d00de00900081
:10524c004e009000808f500015003500ce0090006d
:10525c00010f78000000eb00100798000c003700dd
:10526c001e009000ee009000008040009e00780030
:10527c003e01900081004100914078000148780087
:10528c001e0fe8001e0090000000e80010079800b8
:10529c005e0090009e007800808f5000f0ff34007c
:1052ac001e009000ee009000008040008040eb005b
:1052bc00014878006e0090000080fa0000000600a3
:1052cc000e00fa00600798000000eb00000f780059
:1052dc000000eb00100798001e009000ee009000fc
:1052ec000080400090407800d0c2b30080cf5000c6
:1052fc0006003a0010002000000f78001e009000fd
:10530c000000e800100798000a0037001e0090000b
:10531c00ee0090000080400090407800b0c2b300d6
:10532c0080cf500003003a001e0090000000e800ff
:10533c00100798001e009000ee00900000804000c6
:10534c00500798005e009000fdfd070020079800b4
:10535c001e0078000000e000020032000080eb002c
:10536c000100370010002000300798000000eb000f
:10537c0040079800140037002e0090000000e90050
:10538c00200798002e009000de0090000080400066
:10539c00104078000000fb0001fd2f0080804000d1
:1053ac003e0090000088b90000007800ce0090000c
:1053bc0000804000400798003e0090006a00b90051
:1053cc0000007800300798002e0090000000e000ec
:1053dc00e9ff3a004e0090000080fa000000060041
:1053ec000800fa0020079800310798000000eb0035
:1053fc00000f78000000eb00100798000100370048
:10540c001e0fe8001e007800ae00900000804000e7
:10541c009040780000c2b30080cf5000f8ff3200fb
:10542c000c0037001e009000be0090000080400071
:10543c009e0078002e019000810041009140780080
:10544c00014878001e0090000000e800100798004a
:10545c001e0fe8001e007800ae0090000080400097
:10546c00104078000004e000eeff3a001e009000af
:10547c00be009000008040008040eb0001487800a6
:10548c003e0090000080fa00000006000800fa00c0
:10549c0020079800310798002e009000a8fd070007
:1054ac00000fe900010037001e0fe9001e00780014
:1054bc00ae009000008040009040780000c2b30025
:1054cc0080cf5000f8ff32000000eb00100798006e
:1054dc000b0037001e009000be00900000804000c2
:1054ec009e0090002e0190008100410091407800b8
:1054fc00014878001e0090000000e800100798009a
:10550c009e00e8001e009000808f5000f1ff3c00d0
:10551c001e009000be009000008040008040eb0018
:10552c00014878003e0090000080fa000000060060
:10553c000c00fa003007980041079800224f9800a1
:10554c000000eb00000f78000000eb001007980043
:10555c00120037001e007800be0090000080400052
:10556c0090407800414798001e0fe800ce40900014
:10557c002e48900080cf5000080032001e00900092
:10558c00ce00900000804000ce4090000148780092
:10559c001e0090000000e800100798001e00780024
:1055ac00be00900000804000104078000004e00035
:1055bc00e8ff3a001e009000ce00900000804000f2
:1055cc008040eb00014878004e0090000080fa000b
:1055dc00000006000c00fa00300798004107980004
:1055ec00224f9800334f98000000eb00000f78001a
:1055fc000000eb0010079800180037001e00780020
:10560c00be00900000804000904078004147980018
:10561c001e0fe800ce4090002e48900080cf500026
:10562c0006003a001e009000ce0090000080400062
:10563c00be48900001487800050037001e0090001d
:10564c00ce00900000804000ce40900001487800d1
:10565c001e0090000000e800100798001e00780063
:10566c00be00900000804000104078000004e00074
