:020000040000fa
:080000000002040000000000f2
:020000040000fa
:0400080000060000ee
:020000040000fa
:04000c0000060000ea
:020000040000fa
:0400100000060000e6
:020000040000fa
:0400140000060000e2
:020000040000fa
:0400180000060000de
:020000040000fa
:04001c0000060000da
:020000040000fa
:0400200000060000d6
:020000040000fa
:0400240000060000d2
:020000040000fa
:0400280000060000ce
:020000040000fa
:04002c0000060000ca
:020000040000fa
:0400300000060000c6
:020000040000fa
:04003400440500007f
:020000040000fa
:0400380000060000be
:020000040000fa
:04003c0000060000ba
:020000040000fa
:0400400000060000b6
:020000040000fa
:0400440000060000b2
:020000040000fa
:04004800ec050000c3
:020000040000fa
:04004c0000060000aa
:020000040000fa
:0400500000060000a6
:020000040000fa
:04005400d0020000d6
:020000040000fa
:040058009003000011
:020000040000fa
:04005c00a0050000fb
:020000040000fa
:040060000006000096
:020000040000fa
:040064000006000092
:020000040000fa
:04006800000600008e
:020000040000fa
:04006c00000600008a
:020000040000fa
:040070000006000086
:020000040000fa
:040074000006000082
:020000040000fa
:04007800000600007e
:020000040000fa
:04007c00000600007a
:020000040000fa
:040080000006000076
:020000040000fa
:040084000006000072
:020000040000fa
:04008800000600006e
:020000040000fa
:04008c00000600006a
:020000040000fa
:040090000006000066
:020000040000fa
:040094000006000062
:020000040000fa
:04009800000600005e
:020000040000fa
:04009c00000600005a
:020000040000fa
:0400a0000e0400004a
:020000040000fa
:0400a400ce04000086
:020000040000fa
:0400a800000600004e
:020000040000fa
:0400ac00000600004a
:020000040000fa
:0400b0000006000046
:020000040000fa
:0400b4000006000042
:020000040000fa
:0400b800000600003e
:020000040000fa
:0400bc00000600003a
:020000040000fa
:0400c0000006000036
:020000040000fa
:0400c4000006000032
:020000040000fa
:0400c800000600002e
:020000040000fa
:0400cc00000600002a
:020000040000fa
:0400d0000006000026
:020000040000fa
:0400d4000006000022
:020000040000fa
:0400d800000600001e
:020000040000fa
:0400dc00000600001a
:020000040000fa
:0400e0000006000016
:020000040000fa
:0400e4000006000012
:020000040000fa
:0400e800000600000e
:020000040000fa
:0400ec00000600000a
:020000040000fa
:0400f0000006000006
:020000040000fa
:0400f4000006000002
:020000040000fa
:0400f80000060000fe
:020000040000fa
:0400fc0000060000fa
:020000040000fa
:0401000000060000f5
:020000040000fa
:0401040000060000f1
:020000040000fa
:0401080000060000ed
:020000040000fa
:04010c0000060000e9
:020000040000fa
:0401100000060000e5
:020000040000fa
:0401140000060000e1
:020000040000fa
:0401180000060000dd
:020000040000fa
:04011c0000060000d9
:020000040000fa
:0401200000060000d5
:020000040000fa
:0401240000060000d1
:020000040000fa
:0401280000060000cd
:020000040000fa
:04012c0000060000c9
:020000040000fa
:0401300000060000c5
:020000040000fa
:0401340000060000c1
:020000040000fa
:0401380000060000bd
:020000040000fa
:04013c0000060000b9
:020000040000fa
:0401400000060000b5
:020000040000fa
:0401440000060000b1
:020000040000fa
:0401480000060000ad
:020000040000fa
:0402080000060000ec
:020000040000fa
:04020c0000060000e8
:020000040000fa
:0402100000060000e4
:020000040000fa
:0402140000060000e0
:020000040000fa
:0402180000060000dc
:020000040000fa
:04021c0000060000d8
:020000040000fa
:0402200000060000d4
:020000040000fa
:0402240000060000d0
:020000040000fa
:0402280000060000cc
:020000040000fa
:04022c0000060000c8
:020000040000fa
:0402300000060000c4
:020000040000fa
:04023400440500007d
:020000040000fa
:0402380000060000bc
:020000040000fa
:04023c0000060000b8
:020000040000fa
:0402400000060000b4
:020000040000fa
:0402440000060000b0
:020000040000fa
:04024800ec050000c1
:020000040000fa
:04024c0000060000a8
:020000040000fa
:0402500000060000a4
:020000040000fa
:04025400d0020000d4
:020000040000fa
:04025800900300000f
:020000040000fa
:04025c00a0050000f9
:020000040000fa
:040260000006000094
:020000040000fa
:040264000006000090
:020000040000fa
:04026800000600008c
:020000040000fa
:04026c000006000088
:020000040000fa
:040270000006000084
:020000040000fa
:040274000006000080
:020000040000fa
:04027800000600007c
:020000040000fa
:04027c000006000078
:020000040000fa
:040280000006000074
:020000040000fa
:040284000006000070
:020000040000fa
:04028800000600006c
:020000040000fa
:04028c000006000068
:020000040000fa
:040290000006000064
:020000040000fa
:040294000006000060
:020000040000fa
:04029800000600005c
:020000040000fa
:04029c000006000058
:020000040000fa
:0402a0000e04000048
:020000040000fa
:0402a400ce04000084
:020000040000fa
:0402a800000600004c
:020000040000fa
:0402ac000006000048
:020000040000fa
:0402b0000006000044
:020000040000fa
:0402b4000006000040
:020000040000fa
:0402b800000600003c
:020000040000fa
:0402bc000006000038
:020000040000fa
:0402c0000006000034
:020000040000fa
:0402c4000006000030
:020000040000fa
:0402c800000600002c
:020000040000fa
:0402cc000006000028
:020000040000fa
:0402d0000006000024
:020000040000fa
:0402d4000006000020
:020000040000fa
:0402d800000600001c
:020000040000fa
:0402dc000006000018
:020000040000fa
:0402e0000006000014
:020000040000fa
:0402e4000006000010
:020000040000fa
:0402e800000600000c
:020000040000fa
:0402ec000006000008
:020000040000fa
:0402f0000006000004
:020000040000fa
:0402f4000006000000
:020000040000fa
:0402f80000060000fc
:020000040000fa
:0402fc0000060000f8
:020000040000fa
:0403000000060000f3
:020000040000fa
:0403040000060000ef
:020000040000fa
:0403080000060000eb
:020000040000fa
:04030c0000060000e7
:020000040000fa
:0403100000060000e3
:020000040000fa
:0403140000060000df
:020000040000fa
:0403180000060000db
:020000040000fa
:04031c0000060000d7
:020000040000fa
:0403200000060000d3
:020000040000fa
:0403240000060000cf
:020000040000fa
:0403280000060000cb
:020000040000fa
:04032c0000060000c7
:020000040000fa
:0403300000060000c3
:020000040000fa
:0403340000060000bf
:020000040000fa
:0403380000060000bb
:020000040000fa
:04033c0000060000b7
:020000040000fa
:0403400000060000b3
:020000040000fa
:0403440000060000af
:020000040000fa
:0403480000060000ab
:020000040000fa
:100400008fb221000e7f22000e0188000000000044
:10041000000020000000e000020032000001200087
:100420002002880014000700f70107000000e00028
:1004300003003a00e0ff2300010020000200370023
:100440000000200001002000810f70000100320038
:1004500014000700000020000000e000020032004d
:1004600000000200000000004842020000000000fe
:100470000040da000000fe004440a90020062000f1
:100480000000e0000300320000002000a00188000e
:100490004440a800000006008a1f78008b1f7800e7
:1004a0000000060091018800800478000000eb0045
:1004b0001a003700e284440032a0b4009905ba0063
:1004c000e284440032a0b4009906ba00e2844400f9
:1004d00032a0b4000006eb00476fde00fd07b2005b
:1004e000636ce10003003a00ebff07000000eb0043
:1004f0000a003700606ce10004003a00005deb0088
:100500008b05e900fdff3e00040037006168e10053
:10051000010032000086eb000b00070019c7ba008b
:100520001905ba000e04e00003003a000a00e000da
:10053000e0ff3a0000000600fe07b2009e018800be
:100540008a047800f5ff3700395dba008b05e900b1
:100550000c003200295dba008b05e900080032006a
:100560000c00e00003003a00e284440032a0b40032
:10057000f5ff370019ddba008b05e900faff3a00f4
:100580008904e800e184440032a0b40000000600c1
:10059000000000000000000000000000000000005b
:1005a0003600f800809fbe00829fbe00849fbe0080
:1005b000869fbe003400f80000002000a0018800e3
:1005c0000400fa008560a9005082200011c0b30029
:1005d000014878003011800080407800408220007f
:1005e00001487800100280004500de00674060008e
:1005f0000080fb00000f780011028000000e200038
:1006000001007000100288000000000040822000fd
:10061000104078008040780060862000101e07009f
:100620001e00780000407800674060000080fb00fa
:10063000670060004500dd0012028000f1f12f002c
:1006400081006100010070001002880000000000bd
:10065000100280004500de00674060000080fb0063
:100660001007980011028000000e200001007000a9
:1006700010028800000000000299800040822000e3
:1006800090407800002a21000000410001487800d5
:10069000009980000000e80000998800019980001e
:1006a000f0072000808f5000020036000000eb00b1
:1006b0000099880021998000f0072000808f500069
:1006c00003003e00209980000000e8002099880087
:1006d0001e00900000407800674060000080fb0032
:1006e000670060004500dd0012028000f1f12f007c
:1006f000810061000100700010028800000000000d
:100700000080fa003400f9004f03be004f02be0023
:100710004f01be004f00be003600f9000040060049
:100720003600f800809fbe00829fbe00849fbe00fe
:10073000869fbe003400f80000002000a001880061
:100740000400fa008580a9003087200011c0b300a2
:1007500001487800100280004500de00674060001c
:100760000080fb00000f780011028000000e2000c6
:1007700001007000100288000000000063004700c4
:100780008000780060a72000e31d07002047980044
:100790001e00780000407800674060000080fb0089
:1007a000670060004500dd0012028000f1f12f00bb
:1007b000810061000100700010028800000000004c
:1007c0002e4090000004e00008003200be4090007f
:1007d0002087200001487800208720001040780002
:1007e0000080fb0020118800040037009580a900dc
:1007f0004087200011c0b300014878000080fa0053
:100800003400f9004f03be004f02be004f01be008e
:100810004f00be003600f900004006003600f80028
:10082000809fbe00829fbe00849fbe00869fbe0048
:100830003400f80000002000a00188000400fa0045
:1008400087c0a90030a8200011c0b300014878007b
:10085000b01180008040780020a820000148780076
:10086000100280004500de00674060000080fb0051
:10087000000f780011028000000e200001007000bf
:10088000100288000000000020a82000104078001e
:100890008040780040e82000711d07001e007800ad
:1008a00000407800674060000080fb006700600047
:1008b0004500dd0012028000f1f12f00810061008f
:1008c000010070001002880000000000100280008b
:1008d0004500de00674060000080fb0010079800c4
:1008e00011028000000e200001007000100288003c
:1008f0000000000032b9800020a82000904078005d
:1009000060322100000041000148780030b98000c9
:100910000000e80030b9880031b98000f03f2000c5
:10092000808f5000020036000000eb0030b98800d4
:1009300051b98000f03f2000808f500003003e003e
:1009400050b980000000e80050b988001e009000f7
:1009500000407800674060000080fb006700600096
:100960004500dd0012028000f1f12f0081006100de
:100970000100700010028800000000000080fa00f2
:100980003400f9004f03be004f02be004f01be000d
:100990004f00be003600f900004006003600f800a7
:1009a000809fbe00829fbe00849fbe00869fbe00c7
:1009b0003400f80000002000a00188000400fa00c4
:1009c00087e0a90010e9200011c0b30001487800b9
:1009d000100280004500de00674060000080fb00e0
:1009e000000f780011028000000e2000010070004e
:1009f00010028800000000006300470080007800bb
:100a000040292100441d0700204798001e0078005f
:100a100000407800674060000080fb0067006000d5
:100a20004500dd0012028000f1f12f00810061001d
:100a30000100700010028800000000002e409000ad
:100a40000004e000040032003e4090000080fb0003
:100a5000a01188000400370097e0a90020e92000d9
:100a600011c0b300014878000080fa003400f9009a
:100a70004f03be004f02be004f01be004f00be003c
:100a80003600f900004006003600f800809fbe00e6
:100a9000829fbe00849fbe00869fbe003400f80087
:100aa00000002000a00188000000fa008460a90076
:100ab00010002000a0c3880090c380000000e80060
:100ac00090c38800b0c38000c1c3800061004000b3
:100ad000e0804800b0c38800c1c38800d0c3800054
:100ae0000000e800d0c3880020c480000000e000bf
:100af0000b00320091c3800010408000000178009c
:100b0000110009008280d8008000fd000000e00094
:100b100003003a0021c48000208721000100010069
:100b20000080fa003400f9004f03be004f02be00ff
:100b30004f01be004f00be003600f9000040060025
:100b4000809fbe003400f80000002000a001880053
:100b50000000fa0085a0a900a08020009000780085
:100b600000188000008040008000d100a08020009c
:100b700001087800a08020009000900010188000ec
:100b8000008040008000d100a0802000110098006b
:100b9000a0802000a000900020188000008040006d
:100ba0008000d100a080200021009800a0802000bb
:100bb000b000900030188000008040008000d1001c
:100bc000a0802000310098000080fa003400f90075
:100bd0004f00be00004006003400f800881f780077
:100be00008002000a80188004f0478000000fa00e7
:100bf0008500a9000080fa003400f90000400600da
:100c00000040da000000fe000000050003f0a20032
:100c1000889fbe008a9fbe008c1f7800f5000700e9
:100c2000fc0033006450e1004f0032006420e1001a
:100c30005200320003826c0007003b000905d0001f
:100c40000306d000820f54000c065d00020039003c
:100c50000200320089017800030678008582550081
:100c600004003d000003fd008103fd008502ea0051
:100c70008b854200840f720002003b006000100070
:100c8000e08018006011b8000005eb007a28e10050
:100c90000a00390006007800c75ddd00f707b200e2
:100ca000878075002d003700828171000a0178006d
:100cb000610560008180d1000080d3008502e900d9
:100cc000f9ff3b00060440008784480002003b0017
:100cd00060041400e0841c000988a30007003200af
:100ce0008a81710082817100610164008904d100f0
:100cf0000884d3008b05e800170037000978a300ab
:100d000013003a000b00e000130034008b05e900eb
:100d10000804440089844c000a4474000978a30044
:100d20000d003a000b00e000070034008b05e900dd
:100d30000804440089844c0001003a000b002000a4
:100d40000978a300f7ff32000001eb000200370032
:100d5000828171000a0178006b0007000cf0a70087
:100d600001f0a000b40037006420e10002003a0066
:100d7000838f6c00b40033000801be000200be0087
:100d8000ad003700889fbe008a9fbe008c1f780090
:100d9000980007009f00330003866c006450e10058
:100da0002e0032006420e100330032006150e10087
:100db0002f0032006120e1003100320085855500ae
:100dc000eb07b000090020000804200005003700f0
:100dd0000804440089844c000a00310006034300e3
:100de00087834b000001530081815b00f8ff3300d3
:100df0000203be000800a0000804440089844c00df
:100e0000f6ff3900c639dd008301730001003200ae
:100e1000130020008904d1000884d3000998a3009e
:100e2000050032000800a7000300a0008904d100db
:100e30000884d3008b05e8008904d1000884d3001e
:100e40000001eb000281d2002f00070001f0a10099
:100e50000cf0a70001f0a000770037006420e1004b
:100e6000790032000801be000200be00f7ff370023
:100e70006120e100740032006000b800f3ff370029
:100e80000000200001f82700f0ff370014002000c8
:100e9000a40037000001be00410007000470a70055
:100ea00003f0a10003f8a30013003a006509b100a4
:100eb00010003200090035006928e1000200350009
:100ec000010028000000050000004000818048006b
:100ed0008502e900fcff3a0000000600f88f42009e
:100ee000050035008100d1000080d3008502e800b4
:100ef000fcff3a00000006008000eb000000050047
:100f00006011b800a2003700810020006180550008
:100f10000b003d000b00200061fe2f000100e100ee
:100f20001d00340082817100610164008904d100d8
:100f30000884d3000000e800faff3a0071002000a6
:100f400061006400030070000200600009003200cc
:100f500061044400e0844c000988a50005003200cb
:100f60008b05e8006808e10002003a008904d1001e
:100f70000884d300f20f20000258e10005003d0074
:100f8000c75ddd00f907b2008980750008007800b0
:100f9000000006000bf827008b0078000000050019
:100fa000c70ade00f107b200f50fb20008003200f8
:100fb000e1cf4200020032000170a00024000500d1
:100fc000810f700001003200040805004400050094
:100fd000810f700002003a00140005008502e9004c
:100fe0000000400081c04800fcff3b000170a000f1
:100ff000240005000004be00e9ff07000003be0056
:101000000405be000200be00e5ff0700844f750026
:10101000000006000200be006450e100050036003a
:101020006420e100020036000968a30001003a00d4
:101030000800be000160a0004f0678004f05be000a
:101040004f04be0000000600f0ff2f00f1ff270054
:10105000f9ff3700889fbe008a9fbe008c1f780072
:10106000e4ff0700ebff330003866c006450e100ef
:10107000240032006420e100270032006150e100ca
:10108000220032006120e100210032008b85420005
:10109000eb07b1000134b800003ab8000804420080
:1010a00089844a00013ab8000030b80088804000c6
:1010b00009014a000400330000004000818048001c
:1010c000020149008b05e900c909dd0083017000b8
:1010d0000100320013002000c814de004814dd00b7
:1010e0004709de001200b200c808de000884700064
:1010f00085ff070001f0a1000cf0a70001f0a0009f
:10110000cdff37006120e100cfff32000801be00b3
:101110000200be00f7ff37006150e100fcff3a001b
:10112000c9ff3700889fbe008a9fbe00841f7800d9
:10113000b0ff07004f00780011003300f0ff2f00d0
:10114000838f6c0006003b00040565000a00a700c1
:101150000800370009f0a600100020000800370042
:10116000820f5400838f5c000300390010002000c0
:1011700001003e000000200009f0a7000000ea0086
:101180004f05be004f04be000000e0000000060056
:10119000889fbe008a9fbe0000827000040271001a
:1011a00004827100260032000004be000200be006e
:1011b0006011b8006b092000950220000182cf0069
:1011c0000a0039000541b1000082cf000700390054
:1011d0000541b1000982cf00040039000541b1008a
:1011e0000882cf00010039000541b10005425200dc
:1011f000120032000a003b0082817100610164002c
:101200008100d1000080d3008984d3000884d300fa
:101210008b05e8000442e800f7ff3a0007003700ba
:101220000804440089844c00000048008180480084
:101230008b05e9000442e900f9ff3a0032ff07009c
:101240004f05be004f04be0000000600881f780056
:101250000204780008017800c4000700080040007c
:101260004f047800000006000000fa00881f780094
:1012700000047800ea8157003fb9970088007800a1
:1012800060922000070007000000e0000200350027
:101290008040eb00017478004f0478000080fa0071
:1012a000000006006200fa00889fbe008a1f7800d6
:1012b000000578008104780002047800830078003b
:1012c00080f92f000f004000770107009a979f00d8
:1012d000a9979f000000eb00b09f9f001885fb00be
:1012e0008a04fb000a05ea004f55de005002200088
:1012f000808f54000d003200e10f55000b003a00c2
:101300000a017800880078002f9097009f9197003d
:1013100003000100a0979f000000e0008e00320053
:101320003f9897000000e800b09f9f000a04440027
:1013300050022000808f5400040032000900e000b9
:10134000e6ff3a003f989700840037000000eb006a
:10135000909f9f00809f9f00f0979f00e0979f00c5
:10136000d0979f00c0979f000700370001b221006f
:10137000010050000000400041b1210061007800f0
:10138000df98970001007000d09f9f0088047800cc
:1013900009047800384578008a00fb0000b221007b
:1013a000790007000000e000f0ff3a00a1c2b3009e
:1013b000814f55000e003a00cf8897000180e90068
:1013c000c08f9f0010007800c09f9f000000e000c9
:1013d00005003d000000ea00c09f9f005f98970055
:1013e0000020a000d09f9f000904e8000f003700f4
:1013f000c09f9f000000eb0005003700f2ff2700b0
:10140000820f5000020032006a01b90002804000e1
:101410000904780088047800b900fb000103b100da
:10142000e98f5000f5ff3600c09f9f00e0c2b30077
:10143000984f1000020032000080eb0019003700c6
:10144000a0c2b300d84f100007003a00cf88970021
:101450000180e900c08f9f0010007800a09f9f00ce
:101460000804e800100037000000eb00a09f9f0078
:101470008800780005003700f3ff2700830f500035
:10148000020032006a02b900040041000104780041
:10149000880078003101fb000203b100e90f510020
:1014a000f5ff3600a09f9f00984478008900fb005c
:1014b000c0b02100340007000000e000020032004c
:1014c0000804e800010037008044eb00c97f9f005a
:1014d00080c6b30080cf540004003a0098cf1400b7
:1014e0000a003a006640500006003700c0c6b3004c
:1014f00080cf540005003a0098cf140003003a0052
:1015000065404000c07f9f000804e8001801fb0010
:10151000e3fb2f008f81410081f92f008f80400075
:10152000a0f92f000f004000e10007000000e000dc
:1015300009003a00e1fb2f008f804000a0f92f0046
:101540000f0040001c0007000000e0000200350012
:101550000804e80061ff37000080eb004f057800c9
:101560004f04be000080fa000000060080017800f1
:1015700002003700b15978000201e9000200e000e2
:10158000fcff3a0000000600020037000304e00000
:10159000060032000001780002007800b0417800b7
:1015a00081cf5100f9ff3a00010037000001eb0044
:1015b00002007800000006000400fa00889fbe00c8
:1015c0008a9fbe008c1f7800000478000106780016
:1015d000f80d900078009000808555000808900074
:1015e00080855500180890008085550028089000d7
:1015f0008085550038089000808555004808900087
:10160000808555000002220090bf9f000003230048
:10161000a0bf9f00081090000028a30015003a000a
:101620000b00e000130034000b0578008a047800fa
:10163000e20f55000100360029002000c80190008b
:1016400009017800ee805700580090000300010067
:10165000500498000000e0008c0032006808900000
:1016600009004000600c9800090555004240a9009f
:10167000eeff3c00780190000200e0000c00340016
:10168000c80190008c007800580090000300010011
:10169000500498008080eb000000e0007c003200e5
:1016a000e80890007800900000804000600c9800ee
:1016b000880c90000900e000110034000905780052
:1016c000e28f5400010036002a002000c80190007b
:1016d0000a017800ec8057005800900003000100d8
:1016e000500498000000e000680032006808900094
:1016f0000a004000600c98008a845400edff370017
:10170000180990000200e0000c003400c8019000ad
:10171000e800900058009000030001005004980079
:101720008080eb000000e00059003200e8089000e3
:101730001808900000804000600c9800a80c9000f1
:101740000900e0001100340009057800e28f540020
:10175000010036002a002000c80190000a0178002c
:10176000ec805700580090000300010050049800de
:101770000000e00045003200680890000a004000c8
:10178000600c98008a845400edff370038099000ff
:101790000200e0000e003400e800900018089000fd
:1017a00080804000c80190005800900003000100b4
:1017b000500498008080eb000000e000340032000c
:1017c000e80890003808900000804000600c980005
:1017d000c80c90000900e0001100340009057800f1
:1017e000e28f5400010036002a002000c80190005a
:1017f0000a017800ec8057005800900003000100b7
:10180000500498000000e0002000320068089000ba
:101810000a004000600c98008a845400edff3700f5
:10182000081090008000eb000028a3001800320090
:101830000b00e000160034008b04780009057800e6
:10184000e28f5400010036002a002000c8019000f9
:101850000a017800ee805700580090000300010054
:10186000500498000000e000080032006808900072
:101870000a004000600c98008a8454004240a9008d
:10188000eeff3c008000eb00010037008080eb00a1
:10189000010078004f0678004f05be004f04be00df
:1018a0000080fa0000000600010878000000060031
:1018b000889fbe008a1f7800000478008244780068
:1018c0000305780070c6b30080cf54001a003c00b6
:1018d00000c0e90080cf5400cd003d006d405000b5
:1018e00080cf5400770032000b003c007140500064
:1018f00080cf540035013c0000c0e90080cf540087
:10190000c3003d0050c2b30080cf54002c01320010
:101910007c4040000500370030c6b30080cf540043
:101920001a0032001e003c0000c0e90080cf5400c5
:1019300026013a00b6003700f0c6b30080cf54004d
:101940006000320007003c006640500080cf540029
:10195000130032006540400080cf54001b013a0064
:10196000d400370050c7b30080cf54005500320078
:101970006340400080cf54005200320002c7b300e1
:1019800082cf540011013a00ff0037001181e900b5
:1019900082087800780090001275780011013700f5
:1019a00028609000c2c6b300824f500007003a0082
:1019b0001101780064005100800878001000be001a
:1019c0004f89de00820178001400370012c7b3008f
:1019d000824f500003003a00110278006800520064
:1019e00005003700a2c6b300824f500006003a003f
:1019f0009102780068805200800878005001be0093
:101a00004000be00050037001180e9008008780022
:101a100010007800cf80de006109b900009cbe0094
:101a20000294be002862900085c6b300854f520024
:101a30000d00320025c6b300854f520004003a0065
:101a40000000fb00cf80de006109b900080037000c
:101a500045c7b300854f520003003200e6c2420082
:101a6000854f520004003a00cf80de006109b900c2
:101a7000009cbe000294be003802be002803be00d7
:101a800078009000d1c2b300e00f5200e08f5a00fe
:101a9000e00f5b00e08f5b000800350088109000cd
:101aa0000118a30002003200b1c2b30003003700e6
:101ab0000108a3005100320001c2b3000175780093
:101ac0004c00370028609000c2c6b300824f50001f
:101ad00008003a0011037800640053008008780081
:101ae0001002be006033b8000400be000601be0054
:101af0001400370012c7b300824f500003003a00b1
:101b0000910278006880520005003700a2c6b30039
:101b1000824f500006003a0011037800680053001d
:101b2000800878005001be004000be00050037006c
:101b30001180e90080087800100078008000eb0038
:101b40006011b800009cbe000294be0028629000a4
:101b500085c6b300854f52000d00320025c6b30084
:101b6000854f520004003a000080fb008000eb002b
:101b70006011b8000800370045c7b300854f520018
:101b800003003200e6c24200854f520004003a00d2
:101b90008000eb006011b800009cbe000294be0003
:101ba000081090000038a300140032003800be0076
:101bb0002801be00e00f5000e08f5800e00f5900f0
:101bc000e08f59000d00320080c7b30080cf540071
:101bd0000300320080c5b30080cf540007003a00f4
:101be0007800900001c3b300017578000000e800a0
:101bf000097578000000e8007004980078009000f3
:101c0000000545006a0498008940780069003700a3
:101c100028619000c0c4b300804f510006003a0014
:101c20009103780068805300800878005001be005e
:101c30004000be000500370011017800640051002b
:101c4000800878001000be0015050700009cbe004b
:101c50000294be00b8009000780090000100e000ff
:101c600002003d00d1c2b300080037008810900088
:101c70000118a30002003200b1c2b3000300370014
:101c80000108a3000400320001c2b300017578000e
:101c90000000e800700498007800900000054500fe
:101ca0006a0498008900fb000800780053000700d0
:101cb0004e00370028619000c3c6b3001180e900d0
:101cc000834f5100240032000a003c00e4c151005f
:101cd000834f51002700320083c1e800834f510039
:101ce0001500320020c6b300804f510020003a009a
:101cf0000a00370043c7b300834f51001d00320074
:101d0000e6c14100834f51001a00320010c7b300f2
:101d1000804f510016003a00060037001180e9009c
:101d20008008780010007800485c9000084878002f
:101d30002e0037001180e90080087800100078003c
:101d4000680a9000cfa2de00612bb9000498be00a3
:101d50000690be002500370080087800100078004b
:101d600068099000cf91de000288be001f00370096
:101d70001180e9008008780010007800680c90005d
:101d800008087800190037001181e90082087800fe
:101d900012027800cfa2de00612bb900049cbe00c5
:101da0000694be00f8009000010545006a04980002
:101db0008040780008007800860207000b0037009a
:101dc00078009000097578000600370078009000d0
:101dd000000545000904e00001003a0059c2b300c3
:101de000094d78000000e800700498000000eb0046
:101df0004f0578004f04be00000006002f04b0001d
:101e0000889fbe008a9fbe008c9fbe008e1f7800f8
:101e10000007780081f79f003e04be002e05be003b
:101e20005e0890000000e00002003d00600020001d
:101e3000500f98008e00780020fb2f000f0040000c
:101e40003a020700e20f50000a003a00300020007a
:101e5000100f9800b1c9b3000ff097008140400007
:101e6000809f2100e1cf50000d003e00409f2100e7
:101e70000b0037000000e0000f00340030002000ad
:101e8000100f9800b1c9b3000ff1970081404100d5
:101e900000a02100e1cf500001003e00c09f2100c2
:101ea000ee009000b0487800b068780010407800ec
:101eb00090409800f30037000000e00005003a0071
:101ec00022fb2f000f014100001978008001eb0078
:101ed000e70037006022b8006033b8000800be0099
:101ee0000a01be00b60307000000e00001003d004b
:101ef0000bf0a200705927009f9897000088b90046
:101f0000026a280013002000110407006406500034
:101f10009c9f9f0013003b0063061600c0ff2f002c
:101f2000000666008c01ea00939f9f004da02100ef
:101f30000800be000a01be00070037000c08a3001d
:101f4000030032003d02be002d03be00a2040700c4
:101f50000c86d100e88646000c00e000f7ff3c004c
:101f6000180037000c00e00018003200c0ff2f00fe
:101f7000000666009c9f9f004da021006000b800f5
:101f80000200200003ff2300070037000c08a30015
:101f9000030032003d02be002d03be008e04070088
:101fa0000c86d100e88646000c00e000f7ff3c00fc
:101fb0000002be000203be000800be000a01be000f
:101fc000890307000004be000205be00de08900081
:101fd00060c6b3000ff29700804f52000400320039
:101fe0006000200062c4b300824f520002003a0039
:101ff0009f9a97006a80420081004000f1b79f00dd
:1020000001037800f30f5300020034003701200071
:10201000f7b79f0000c3b300c0779f0056fb2f00a7
:102020000f0343000e007800a0b79f00060778005a
:102030003d0037000800be000a01be00370407005b
:102040000006be007fb1970068015100f2b79f0003
:102050004240a9000c0034005c0407000002be00ee
:102060000203be000800be000a01be00d004070043
:102070006022b80046782d00771924005604070026
:102080000004be000205be00e80047008e002000ec
:102090000802be000a03be00b4b79f00c5b79f0088
:1020a000d6b79f00e7b79f000c01be00010478007f
:1020b0000c003700a400200005002000c0fd2f0008
:1020c0000f004000840107006fa89700ffa8970049
:1020d0000fb197009fb1970005c3b300056441009d
:1020e0000001be00e00f5100e08f590003003400f2
:1020f0000e07e900e10f4700eeff3a008800780084
:102100003fb49700cfb497005fb59700efb5970045
:102110000200370000c3b300806078000e07e900ba
:10212000fcff3b00688740007fb397000600e0009b
:10213000070034006022b8006033b8000800be0019
:102140000a01be00230307000000e000b9ff3c00c5
:102150000e0378002fb7970051fb2f008f804000af
:10216000010353009f9b970067804300909f9f004f
:10217000020037000603e9000000e90001017800d1
:102180008200780003c3b300b1cf1100f9ff320021
:10219000909f9f00de09900061c6b3000ff2970088
:1021a000814f52000300320061c4b300814f5200de
:1021b00002003a000000e8000a003700100020008a
:1021c00051c6b3008ff2970081cf52000500320054
:1021d0000540780050c4b2000080fb000000e90018
:1021e0004f00de0083014000868f51000100340063
:1021f000860178000300e0001d00350000c3b30035
:10220000868f510006003d0062c27900694040009f
:1022100041c3b300814f520001003c0069405000af
:102220008300e9008100410001003700840178004b
:102230000302e90001037800a142780080cf520038
:10224000faff320091c3b300814f500001003a0001
:10225000054be8000400e00005003d000201e90034
:102260008301e8001f9b97000603e800969f9f00ec
:102270008ff397008700fb001f9a97000e007800ed
:10228000060007004f0778004f06be004f05be004e
:102290004f04be002f04b10000000600f087470085
:1022a000889fbe008a9fbe008c9fbe008e1f780054
:1022b00000047800814478000205be00040678001e
:1022c0000b00e00002003c001b0020006ab221006d
:1022d00060c6b30080cf54000e00320060c4b3006b
:1022e00080cf54000b00320070c6b30080cf540082
:1022f0000300320070c4b30080cf540081003a0064
:10230000e40f46007f00350058089000800f56000b
:102310007c003d000c06e80060c6b30080cf54008e
:102320001000320060c4b30080cf54000d003200b2
:10233000081090000038a30004003a0058089000ec
:10234000808f550001003d005b0c980058089000fc
:102350000c005000500c980002003b000000eb0005
:10236000500c980018089000e80090000c00e00065
:1023700026003c0002c3b300827078000000e80031
:10238000100c9800d80890000100e00003003c0009
:10239000881090000138a30005003200e80090008a
:1023a000e2c2b300827078000000e800100c9800d0
:1023b000580890008c00ea00810f500001003d0099
:1023c0000006ea008c00ea00210c98000006460096
:1023d0005c0c98008b0f5600010034000b0678004f
:1023e0003c0c9800e8009000180890000080400025
:1023f0000c0178008a0078005cfc07005808900007
:102400000c0650004c0c9800900037008c8f550043
:1024100018003d00008040000b0178008a00780021
:1024200052fc07001808900000804500100c98002e
:102430008b0556002b0c9800d80890000100e00096
:1024400003003c00881090000138a3000600320011
:10245000e8009000e2c2b300827078003808900073
:102460000000e800300c980058089000400c9800dc
:1024700076003700008040000c0178008a00780068
:102480003afc07001808900000004600100c980065
:102490008c855500d80890000100e00003003c0046
:1024a000881090000138a30005003200e800900079
:1024b000e2c2b300827078000000e800100c9800bf
:1024c00058089000808f5500010034008005780086
:1024d000e800900018089000008040008c00450043
:1024e0000b01780021fc0700180890000b00400049
:1024f000100c9800580890008b0550002b0c980089
:102500005200370018089000e80090009a70780098
:102510000000e800100c9800d80890000100e000ce
:1025200003003c00881090000138a3000500320031
:10253000e8009000e2c2b300827078000000e8007a
:10254000100c9800580890000000e00010003400c3
:102550008b05e900808f550001003400800578006c
:10256000e800900018089000008040008a00e80011
:102570000b017800fdfb0700180890000b004000dd
:10258000100c9800580890008b0550002b0c9800f8
:10259000e80090001808900000804000095878007a
:1025a0000007e8000c00e00004003500b1c2b300f1
:1025b000014878008e04780004003700d1c2b300cf
:1025c000014878008e0478000c06ea007d855700eb
:1025d0008006eb0009003700a20020008c00780084
:1025e00072805700310007007fb097008fb89700c6
:1025f000016d7800000678008d06e8000c00e00010
:10260000f5ff3c000d00e00009003a008e04780060
:1026100000c3b300805c7800050037008d06e90038
:10262000fc80570061c07e0002c3b300825c4000a2
:102630000d00e000f9ff3c00e80090001808900051
:102640000080400080845400390c980008109000ed
:1026500074006000f00f50000e003a0098089000df
:102660007800900000804000a80890000100400021
:10267000b808900001004000c80890000100400028
:10268000f8089000810f500002003d0000805000cb
:10269000000c98004f0778004f06be004f05be00a3
:1026a0004f04be000f01b100000006008002780058
:1026b00001037800110009000203d80080017800ae
:1026c000830a78000299b90002015300920298002f
:1026d0000500780000000600881f78008a9fbe0071
:1026e0008c9fbe00000478000205be000406be00f8
:1026f0000401be000a00be0015020700008cbe00e7
:102700000c01be003f0307000005550081855d00f8
:102710002a0498003b049800080078004f06be0089
:102720004f05be004f04780000000600889fbe00e1
:1027300000047800e68440001900d0004500de0067
:10274000f27f2000820f500010003a00000ceb00d6
:10275000990478006f816400200020001b003a007b
:10276000210190000200e00018003a0011019000e1
:102770000200e00015003a00100020001100e00007
:102780001200320020002000100037000000e0009e
:1027900004003a00010078003d0107000000e0005d
:1027a00008003c00f20028001901610001fe23002e
:1027b000810c710021c02f00010c40000080eb0053
:1027c00002003700000ceb000000eb004f04be00dd
:1027d00000000600fc874700889fbe008a9fbe005d
:1027e0008c9fbe008e1f78000006780080c5b30065
:1027f00080cf50000a0032007740400080cf500068
:102800000a0032006940400080cf50000b003200c7
:10281000b0af210080bf9f00ae0020000a0037004b
:10282000a2ae210082bf9f0006003700b3af210097
:1028300083bf9f008e00200003003700b4af21004b
:1028400084bf9f000e0120003c02be002c03be008e
:102850000605be000404be0040c6b30080cf500091
:10286000030032006540400080cf50000b003a006a
:10287000e00f5200e08f5a00e00f5b00e08f5b003a
:1028800006003d006000b8006011b800040450006c
:10289000858458000605590087855900e80f5700c0
:1028a0000400320040002000f00f570038003a00ca
:1028b0000100370030002000e00f5400e08f5c0082
:1028c000e00f5d00e08f5d0004003a00dc0890003e
:1028d0008d0120000100e000060032008e00e900ba
:1028e000888060008fba9700e5c07800f1ef9f0004
:1028f0007d012000800078008100e90005003300a0
:102900008b05d1000a85d3008984d3000884d300c5
:10291000f9ff3700089ebe000a96be00120037007d
:102920008d06e9008e00e900848060000fb99700f1
:10293000e2c1780082fd2f000f01410003f17e000b
:10294000800078008100e900050033008783d10012
:102950000683d3008582d3000482d300f9ff3700b9
:10296000049ebe000696be003c02be002c03be00c4
:10297000e00f5200e08f5a00e00f5b00e08f5b0039
:102980008b0034000d00e000e5ff3c0088003700bc
:102990002c60900081c6b300814f50000b003200c4
:1029a00006003c000004e00008003200e6c05000d1
:1029b000814f50004e003a0004003700c1c6b300fa
:1029c000814f50004a003a00210037000800e00023
:1029d00004003a005c0890008d0120000000e00037
:1029e00006003200110009000e84d8000fb99700cc
:1029f000e2c07800f1ef9f007d0120001100090086
:102a00000e84d8000a003700110009000e04d80017
:102a10008d06e9000e81b900020454008fb89700ba
:102a200061417c0081fd2f008f80400082f07e009c
:102a3000000478000800e000020032000d00e00011
:102a4000f1ff3c00cfc4de00614db9002500370026
:102a5000e00f5400e08f5c0004003a005c08900036
:102a60008d0120000000e000070032006171b90014
:102a70000800be00600207008fb99700e3417800ac
:102a8000f3ef9f007d0120006171b9000800be00d6
:102a9000490207000b0037006171b9000800be0051
:102aa0002b0107008d06e90000f1b9000204540073
:102ab0000fba9700e4427c0084fd2f000f02420011
:102ac00005f27e000004be00e00f5000e08f5800c9
:102ad000020032000d00e000efff3c004fcdde00b1
:102ae0008a057800089ebe000a96be0030003700b6
:102af000e00f5400e08f5c00e00f5d00e08f5d00b0
:102b000004003a005c0890008d0120000000e00005
:102b1000090032006172b900612bb9000800be00e3
:102b20000a01be00dd0207000fba97006442780078
:102b3000f4ef9f007d0120006172b900612bb900a4
:102b40000800be000a01be00cd0207000d003700dc
:102b50006172b900612bb9000800be000a01be0015
:102b6000d20207008d06e90000f2b9000404540007
:102b70008fba970065427c0085fd2f008f8242004e
:102b800084f27e00009ebe000296be003c04be00a1
:102b90002c05be00e00f5400e08f5c00e00f5d00ec
:102ba000e08f5d00020034000d00e000e8ff3c0013
:102bb000e80f570010003a000c1090000038a300f6
:102bc0000d003200f78f560006003e0085fd2f00f5
:102bd0008f824200e5c07e0000c3b30080cf50006a
:102be000050032008d06e90002c3b30081fd2f000d
:102bf0008f80400082f07e0078811600120e9800cf
:102c00006c00900083fd2f008f8141008d8041007a
:102c100056fa07001c089000dc089000810f500055
:102c200006003d0000805000000e98000c1090003f
:102c30000040a100001698000f0037000100e000de
:102c40000d003d008c109000f4806000f08f50006b
:102c500009003a007c099000fc00900081005100be
:102c60000c09900082805000008050004240a90072
:102c700001003400000e98004f0778004f06be0098
:102c80004f05be004f04be00cf01b100000006009a
:102c9000e60040001101780005002800850261006f
:102ca0006f016100820878000200320012002000eb
:102cb00011003700a0019000120020000300e00086
:102cc0000d003a00900190000300e0000a003a0075
:102cd0001000e00008003a003600370064034000ae
:102ce0009608780080017800530b780090097800ee
:102cf0000408780070015100110278000400e0001f
:102d0000f6ff32001300370064024000140378001d
:102d10004f33de0083814100830873008001780017
:102d2000d3037800cf3bde00140378000603430092
:102d3000068a730013027800040242001003780030
:102d40004f33de008609720090017800038841004d
:102d50000201e90091017800ef8f5100eaff36008f
:102d60001000370080017800530378004f33dd00f6
:102d70001002d1000408730064024000940378003c
:102d8000cf3bdd001303d100868973001103780067
:102d90004f33dd009401d100030a73009108d10084
:102da0000201e80091017800ff8f5100edff3e0025
:102db000ef88610091887200020078000000060030
:102dc0008f1fd100160307008f87e9000000e00085
:102dd00000000600809feb00110307008f87e900c9
:102de0000000e000000006002800fa00889fbe00f6
:102df0008a9fbe008c9fbe0003866b008f00070079
:102e00006400e100440032006408e1004a0032003e
:102e10006100e100460032006108e1004900320033
:102e2000ec0647006000b8003d02be003d03be0056
:102e3000f48657006011b8003d04be003d05be0099
:102e40007d0320000b0037000000a0008d06e90084
:102e5000130032000402420085824a0006034b0040
:102e600087834b0000004000818048000201490038
:102e7000838149000802520089825a000a035b00dc
:102e80008b835b00f0ff3b000802420089824a000e
:102e90000a034b008b834b008d06e900edff3a00df
:102ea0008482720086827200f707b2008782720005
:102eb00001003200150020001e0490003e0b90001f
:102ec00006035400e63fb0000368a3000700320089
:102ed0000000a7000500a0008301d1000281d300fb
:102ee0008180d3000080d3000603e8008301d10075
:102ef0000281d3008180d3000080d3000002eb0068
:102f00000482d2002100070003f0a1000cf0a7000a
:102f100003f0a0005d003700640247006408e10090
:102f2000570032003400be003401be00f6ff370007
:102f30006108e100520032006011b8006000b80082
:102f4000f1ff370003ff270002002000fbff3700de
:102f5000839f68000100e00002003d006000100057
:102f6000e08018000300e00002003d006001110055
:102f7000e0811900100107004f00e00002003b0053
:102f800060001000e080180000000600180020001b
:102f900057002000080453000d003d0006002000eb
:102fa00097fc2f000740e1001e003400848272006d
:102fb000610260008301d1000281d3008180d300cf
:102fc0000080d3000804e800f8ff3a004700200022
:102fd0006104600005047400040464000d00320004
:102fe00061004000e080480060014900e081490044
:102ff00003b8a500070032000603e8006538e100c9
:1030000004003a008301d1000281d3008180d30003
:103010000080d300f87f20000830e1000300350075
:10302000080378006000b8006011b8004433dd0088
:10303000f300b2008301730000000600680447003b
:103040000294be000094be00fc0447008694be00bb
:103050008494be0009007800ba02070008007800d6
:10306000b802070099007800814f70000b003b0008
:103070000800be00930207004f00b10003003700b4
:10308000f3ff2700f2ff2f006110b9004f06be00ca
:103090004f05be004f04be000080fa00000006008d
:1030a00081037800bef707000001be006000b80091
:1030b0000478a30013003a006220e10015003e00ee
:1030c0000d0039008301d1000281d3008180d3003b
:1030d0008301d1000281d3008180d3008301d1001c
:1030e0000281d3008180d3000538b000c42add00fe
:1030f000f300b2008381720007f0a70003f0a00084
:1031000000000600f3ff2700f2ff2f006110b90056
:10311000fbff370003ff2700f7ff37001400fa001a
:10312000889fbe008a9fbe008c9fbe000004be0028
:103130000205be00680047000a90be000890be006d
:10314000800207000070a7000bf0a10030432000b0
:103150009e02900080825200b0fe2f000028e10005
:1031600011003d00b0fc2f000028e10015003400e4
:103170001e0990008e0890007e0090000501b000ae
:103180000201d1008180d3000080d3008502e800d5
:10319000fbff3a000b00e000bcff3b0060001000aa
:1031a000e0801800b9ff3700f0ff2f00f1ff270083
:1031b0000b00e000b5ff3b000100280000002000ec
:1031c000b2ff37006000b800b0ff37004f89de0063
:1031d00082017800820237002800fa00889fbe0032
:1031e0008a9fbe008c9fbe0003866b0093ff070082
:1031f0000028a30064003a000128a30067003a00f9
:103200000008a30062003a000108a30065003a002c
:103210001e009000be08900081064000ed3fb10006
:10322000f4805700ee019000111ab8008e0990004a
:10323000311bb8009e099000311cb800511db80028
:10324000f485570046000700fe0190003a00070091
:103250008b85e8003e0007008e09900040000700c3
:10326000ee019000340007008b85e800380007006d
:103270008e099000400007009e0990001b18b800be
:10328000890440000a854800fe01900034000700d0
:103290008b85e80038000700ee0190003000070041
:1032a0008e0990001b18b800890440000a85480068
:1032b0000a98a30008003a000402420085824a00ee
:1032c00006034b0087834b0008044c0089844c00a4
:1032d0000a054d008d06e9008482720085027300a4
:1032e0004c3add008502720001003200150020001a
:1032f000443ade001400b2004538de00cb45dd0064
:103300000b007000c540de00cb4ddd008b807000ef
:103310004549de00cb55dd000b017100c551de00d3
:103320000d03780019ff070003f0a1000cf0a700bf
:1033300003f0a00055ff37001b18b80085024000bd
:1033400006834800e0834b0060044c000700370010
:103350001b18b8000603400087834800faff3700b7
:103360001b18b8008703400008844800e0844c0024
:1033700060054d00000006001b18b800080440005e
:1033800089844800faff37000108a3003cff3a0097
:103390005800be005801be00e3ff37000008a3003c
:1033a00037ff3a0009047800f9ff370000000000f9
:1033b00007f0a2001c0137006022b80006022000be
:1033c0000000d0008180d2000482d2008582d20029
:1033d0000000a0000202520083825a000300310064
:1033e0000202420083824a000000a1000603e900b5
:1033f000f3ff3a0000000600efff07000400be00e4
:1034000000000600020ab900001bb9000200b80063
:10341000810042008100430000000600889fbe003a
:103420008a9fbe0030044200b0844a0030054b0041
:1034300090854b006000b1000898be000a90be0065
:103440000440e10005c8e10006d0e10007d8e10032
:1034500002003100680040001008e8004f05be007f
:103460004f04be0000000600889fbe008a9fbe0079
:103470003004be002005be000418540005985c000e
:1034800006185d0007985d00110020000440e1006f
:1034900005c8e10006d0e10007d8e10001003900cd
:1034a0008000eb00108810004f05be004f04be00e6
:1034b000000006001200fa00889fbe008a9fbe002e
:1034c0008c9fbe00e0b79f00f1b79f0082bf9f00b6
:1034d00093bf9f000605be000404be000000eb0081
:1034e000d0b79f00c0b79f00b0b79f00a0b79f00a4
:1034f00090b79f000006eb005fb19700cfb0970038
:10350000820141003fb097000200e00004003d004e
:10351000370007007e805700c0ff07000300370018
:10352000330007007e805700cfff0700dfb697000b
:103530000d00e0000c0035006fb29700ffb297005d
:103540000fbb97009fbb97001000200001002000d8
:103550006011b800000272008182720002037300e1
:10356000838373001b0007000c06e80001042000a1
:10357000810f5600e0ff3a000d00e00004003d001e
:103580000802be000a03be007e805700a3ff0700aa
:103590005fa897000000e00005003a001fb2970006
:1035a000afb297003fb39700cfb397000900070071
:1035b0006fb09700ffb097000fb997009fb99700c1
:1035c0004f06be004f05be004f04be000080fa004b
:1035d000000006000100070000000600a4b79f00dd
:1035e000b5b79f00c6b79f00d7b79f000000060081
:1035f0004f09de0082817100b3b79f004f01de00ea
:103600008180400082807000a1b79f008fb097003a
:103610004f09de00000040000200700090b79f00dc
:103620007fa897004f01de008180400082807000fb
:1036300081b79f000d0007004f3ade0000004000f8
:1036400004007000f0af9f00080007000402420071
:1036500085824a0006034b0087834b00dfff07008b
:103660000802be000a03be00000006002fb2970049
:10367000bfb297004fb39700dfb39700000006007a
:10368000881f780018002000881f780089ff070035
:103690008f87e9004f04780000000600801feb00d0
:1036a00084ff07008f87e90000000600889fbe00a6
:1036b0008a9fbe00e00f5000e08f5800e00f5900d5
:1036c000e08f59000c003d006044b8006055b80020
:1036d0000000540081805c0002015d0083815d0078
:1036e000180020001500070008003d001800070022
:1036f0000004eb00050037000004eb000f0007009a
:1037000002003d001200070018002000dcff070047
:103710000800e000060032006022b8006033b80004
:103720000000520081805a0002015b0083815b002f
:103730004f05be004f04be0000000600e00f52001f
:10374000e08f5a00e00f5b00e08f5b000000060096
:103750006044b8006055b8000402540085825c00e3
:1037600006035d0087835d0000000600889fbe00a1
:103770008a9fbe008c1f7800e00f5000e08f580039
:10378000e00f5900e08f59000d003d006044b80083
:103790006055b8000000540081805c0002015d00ab
:1037a00083815d001c0020000820e10009a8e100e1
:1037b0000ab0e1000bb8e1000d003d000800370041
:1037c0000006eb00e00f5200e08f5a00e00f5b00b4
:1037d000e08f5b0006003d006044b8006055b80013
:1037e0000402540085825c0006035d0087835d004f
:1037f000aaff07000c00e000060032006022b800bb
:103800006033b8000000520081805a0002015b0062
:1038100083815b004f0678004f05be004f04be0059
:1038200000000600000000002800fa00889fbe008b
:103830008a9fbe008c9fbe000706780087866900bd
:103840000c003b00030478008704780008f0a10016
:1038500009f0a100840f5000858f5800860f590091
:10386000890f5c00030033000cf0a20001003a0055
:103870000cf0a100f1fd07006400e1005f003200e0
:10388000780147006408e100610032006c014700e4
:10389000748557003200be001201be003a04be001b
:1038a0001a05be001e039000be0a90008503530057
:1038b00006003d000004fd008104fd000205fd003e
:1038c0008305fd008703ea00050378000df8a300d7
:1038d0000400320060041400e0841c0060051d0038
:1038e000e0851d006022b8007d0320000d38e10056
:1038f0008006eb000b0039004433dd00f300b2001a
:103900008301730039003700848272000d02780051
:10391000e10664008b85d1000a85d3008984d30039
:103920000884d3008703e900f7ff3b00080040004c
:10393000898048000a0149008b81490004003b004e
:1039400060001000e080180060011900e08119009b
:103950000358a300090032008d8272008482720035
:10396000610260008301d1000281d3008180d30015
:103970000080d3000603e8001b0037000348a300c3
:1039800017003a000600e000170034000603e900c3
:103990000d00a3000000480081804800020149009a
:1039a000838149000348a3000f003a000600e000ad
:1039b000090034000603e90000004000818048004f
:1039c000020149008381490001003a000003eb0035
:1039d0000348a300f5ff32006022b8000200370060
:1039e000848272006182660068fd070003f0a10016
:1039f0000cf0a70003f0a000a4fd3700640147000d
:103a00006408e10002003a000df8a3009cfd3a00b2
:103a10003200be001201be009cfd37000000000015
:103a2000889fbe008a9fbe008c9fbe000404be001b
:103a30000605be00809fbe00829fbe002f000700cb
:103a4000040678000800be000a01be002b00070033
:103a5000840678004f03be004f02be008d4f7600f3
:103a60007fb0970013003300f0ff2f008b8f6b00a7
:103a700006003b000d0666000c00a7000a00370098
:103a800007f0a600100020000a003700880f52003f
:103a9000898f5a008a0f5b008b8f5b00030039000f
:103aa0001000200001003e000000200007f0a700e9
:103ab0000000ea004f06be004f05be004f04be00e6
:103ac00000000600e48240001078a30007003200e6
:103ad000640240001178a3003400be001401be004f
:103ae000040032000330a700000006003500be00cd
:103af0001501be000330a0000000060005ff2700ee
:103b000005826100070032000428e1000100320054
:103b1000240005000600070001003a0044000500eb
:103b20000408050002000700f9ff3a001400050030
:103b30006f8261008102700085027100850272004f
:103b400000000600800078005002be005003be0056
:103b50004439de00f700b200f37f2000030161006a
:103b6000090032000218e10016003a0085017200d7
:103b700083017300838173000008200015003a0060
:103b8000400020001300370085017200830173009c
:103b90008381730005003a0004a8be0006a8be0099
:103ba000100020000b0037000201e900040242006f
:103bb00085824a0006034b0087834b000748a30019
:103bc000f9ff32000740a00004a8be0006a8be000e
:103bd000200020008000980092009800000006005d
:103be000881f7800030478000300e00007003d0010
:103bf00060001000e080180060011900e0811900e9
:103c000002003b0001f02d00030037000400070014
:103c100008f0a70003f0a0004f04780000000600a1
:103c2000889fbe000082700004027100048271004f
:103c30002400320036432000c50020008383cf00db
:103c40000a0039000541b1008283cf000700390026
:103c50000541b1008183cf00040039000541b10066
:103c60008083cf00010039000541b10085c35300b6
:103c70006022b800120032000a003b008482720009
:103c8000610260008301d1000281d3008180d300f2
:103c90000080d3000603e8008743e800f7ff3a00fe
:103ca0000700370000004000818048000201490001
:103cb000838149000603e9008743e900f9ff3a00e0
:0c3cc000b2fc07004f04be00000006002c
:020000040000fa
:103ccc0076610000722d0000782c0000207300003b
:103cdc00697a0000653a000020250000642c000081
:103cec002061000064640000723a00002030000083
:103cfc0078250000642c000020760000616c000028
:103d0c00756500003a200000256c0000640d000071
:103d1c000a00000076610000722d0000792c000072
:103d2c0020730000697a0000653a0000202500002d
:103d3c00642c00002061000064640000723a0000f2
:103d4c002030000078250000642c00002076000054
:103d5c00616c0000756500003a20000025660000cb
:103d6c000d0a000000540000696d0000657200002f
:103d7c00000000002b490000504400002c00000003
:043d8c000000000033
:020000040000fa
:103d90000200fa00000f7800209980000000e00087
:103da0001400320011998000002a21000080400098
:103db000904078001e00780001487800109980003b
:103dc0000000e8001099880011998000f007200099
:103dd000808f5000020036000000eb001099880030
:103de000209980000000e900209988001000200040
:103df000010037000000eb000080fa000000060020
:103e00000200fa00000f780050b980000000e000c6
:103e10001400320041b9800060322100008040006f
:103e2000904078001e0078000148780040b980007a
:103e30000000e80040b9880041b98000f03f200050
:103e4000808f5000020036000000eb0040b988006f
:103e500050b980000000e90050b98800100020002f
:103e6000010037000000eb000080fa0000000600af
:103e70000200fa000000eb00000f78000500370098
:103e8000002a21001e0040008040eb00014878001d
:103e90001e0fe800f00720009e007800808f500081
:103ea000f7ff34000000eb00109988000000eb00e1
:103eb000009988000000eb00209988000080fa003b
:103ec000000006000200fa000000eb00000f78007e
:103ed00005003700603221001e0040008040eb00ea
:103ee000014878001e0fe800f03f20009e00780097
:103ef000808f5000f7ff34000000eb0040b98800cd
:103f00000000eb0030b988000000eb0050b98800d9
:103f10000080fa00000006000800fa002007980060
:103f20003107980014c0b3002e019000be0190002c
:103f30000058220001002000800f5100818f59009d
:103f400001003e000042eb00044f78008b11070097
:103f50002135800000fe2f0000806000c000b3000b
:103f600020358800c982a80061368000f00f2e003d
:103f70008080600000302000010070006036880002
:103f8000c9a2a9008611070021e2a80021a2a90068
:103f90002182a9002162a90001118000f0cf2f0029
:103fa000008060000011880020e2a90020c2a90062
:103fb00020a2a9002082a9009e40780061c0600074
:103fc0000080fb00610060004300dd000111800003
:103fd0000130a10001007000001188000111800073
:103fe00090ff2f0000806000001188002002a900cf
:103ff0001e4078000004e000110032002e01900005
:10400000be0190004218dd00ce10de00810070007d
:104010004210dd00baf307000001be00004022009c
:1040200041b7240057f307000200200003f82300e3
:10403000f6f2070097f30700000078001000370041
:104040002e019000be0190004418dd00cc10de006f
:10405000810070004410dd00a9f307000001be00dc
:104060000040220041b7240046f307000200200070
:1040700003f82300e5f2070086f30700000078004c
:10408000401188002342a8002362a90023e2a9006e
:1040900023a2a90022e2a90022c2a9009560a800db
:1040a0009580a9002342a800100280004500de0090
:1040b000674060000080fb0010079800110280003c
:1040c000000e2000010070001002880000000000b7
:1040d000020420006182200060862000480f070053
:1040e000022020005187200060a72000440f070015
:1040f0001e00900000407800674060000080fb00d8
:10410000670060004500dd0012028000f1f12f0021
:1041100081006100010070001002880000000000b2
:104120000080fa00000006000800fa00200798004e
:104130003107980014c0b3002e019000be0190001a
:104140000058220001002000800f5100818f59008b
:1041500001003e000042eb00044f78000711070009
:104160003135800000fe2f0000806000e000b300c9
:1041700030358800c9c2a80071368000f00f2e00cb
:1041800080806000005020000100700070368800c0
:10419000c9e2a9000211070031e2a80031a2a9007a
:1041a0003182a9003162a90081118000f0cf2f0077
:1041b000008060008011880030e2a90030c2a900b0
:1041c00030a2a9003082a9009e40780061c0600042
:1041d0000080fb00610060004300dd008111800071
:1041e0000130a10001007000801188008111800061
:1041f00090ff2f0000806000801188003002a9002d
:104200001e4078000004e000110032002e019000f2
:10421000be0190004218dd00ce10de00810070006b
:104220004210dd0036f307000001be00004022000e
:1042300041b72400d3f207000200200003f8230056
:1042400072f2070013f30700000078001000370037
:104250002e019000be0190004418dd00cc10de005d
:10426000810070004410dd0025f307000001be004e
:104270000040220041b72400c2f2070002002000e3
:1042800003f8230061f2070002f307000000780042
:10429000c01188003342a8003362a90033e2a900ac
:1042a00033a2a90032e2a90032c2a90097c0a80037
:1042b00097e0a9003342a800100280004500de000c
:1042c000674060000080fb0010079800110280002a
:1042d000000e2000010070001002880000000000a5
:1042e0000240200041a8200040e82000c40e070042
:1042f0000240200031e9200040292100c00e0700c3
:104300001e00900000407800674060000080fb00c5
:10431000670060004500dd0012028000f1f12f000f
:1043200081006100010070001002880000000000a0
:104330000080fa00000006000800fa00300798002c
:104340000000eb00000f7800be00900011079800fd
:10435000040037001e0fe8001e0090000000e80077
:10436000100798001e009000104078000004e00044
:10437000f8ff3a00e0538000012020000080500048
:104380009e0f500002003e000000eb002d003700a1
:10439000be009000110798001e0037001002800038
:1043a0004500de00674060000080fb0020079800a9
:1043b00011028000000e2000010070001002880031
:1043c000000000001e009000104078009e00900049
:1043d0008100e800110798008040780060a7200065
:1043e0009f0e07002e00900000407800674060009c
:1043f0000080fb00670060004500dd0012028000c5
:10440000f1f12f00810061000100700010028800ae
:10441000000000001e009000104078000004e00042
:10442000deff3a00a104800000002100008060004f
:104430000000e00002003a008580a8009580a800f6
:104440001e0078000080fa00000006000800fa0054
:10445000300798000000eb00000f7800be009000cd
:1044600011079800040037001e0fe8001e0090009e
:104470000000e800100798001e009000104078002f
:104480000004e000f8ff3a00e05380000120200023
:10449000008050009e0f500021003e000000eb0005
:1044a0002c003700100280004500de0067406000ed
:1044b0000080fb002007980011028000000e200001
:1044c0000100700010028800000000003e00900013
:1044d00010407800be0090008100e800310798008d
:1044e00080407800402921005d0e07002e009000da
:1044f00000407800674060000080fb0067006000bb
:104500004500dd0012028000f1f12f008100610002
:104510000100700010028800000000000100370058
:10452000000000003e009000104078000004e00011
:10453000dcff3a00b1048000000028000080600029
:104540000000e00002003a0087e0a80097e0a80021
:104550001e0078000080fa00000006000800fa0043
:104560002007980031079800e053800001202000c8
:10457000808050003e009000808f500002003e007e
:104580000000eb002d0037000000eb00000f78006a
:104590001e003700100280004500de00674060000a
:1045a0000080fb001007980011028000000e200020
:1045b0000100700010028800000000001e0078005a
:1045c000ae009000008040001040780080407800ed
:1045d00060a72000220e07001e0090000040780017
:1045e000674060000080fb00670060004500dd0060
:1045f00012028000f1f12f008100610001007000c3
:1046000010028800000000001e0fe8009e007800e5
:104610003e009000808f5000deff3900a104800032
:1046200000002100008060000000e00002003a006d
:104630008580a8009580a8003e0090000080fa00c8
:10464000000006000800fa00300798003e009000c5
:1046500090009000e05380000220200000005100f4
:10466000808f5000020039000000eb00330037005b
:104670003e00900090007800110798000000eb00c9
:10468000000f78001f003700100280004500de0098
:10469000674060000080fb00200798001102800046
:1046a000000e2000010070001002880000000000d1
:1046b0001e009000104078009e0090008100e800ed
:1046c000110798008040780060a72000e40d0700e3
:1046d0002e00900000407800674060000080fb00e2
:1046e000670060004500dd0012028000f1f12f003c
:1046f00081006100010070001002880000000000cd
:104700001e0fe8009e0078003e0090001000900010
:10471000808f5000dcff3900a104800000002100e0
:10472000008060000000e00002003a008580a800e0
:104730009580a8003e009000100090000080fa00d4
:10474000000006000400fa0020479800e1538000b2
:10475000f01f2000808f5000020036000000eb00a8
:1047600021003700100280004500de006740600035
:104770000080fb00000f780011028000000e200076
:10478000010070001002880000000000ae409000a0
:1047900060a72000b20d07001e00780000407800de
:1047a000674060000080fb00670060004500dd009e
:1047b00012028000f1f12f00810061000100700001
:1047c0001002880000000000a10480000000210009
:1047d000008060000000e00002003a008580a80030
:1047e0009580a800100020000080fa00000006005c
:1047f0000800fa002007980031079800d094800044
:1048000001402000808050003e009000808f5000ca
:1048100002003e000000eb002d0037000000eb001e
:10482000000f78001e003700100280004500de00f7
:10483000674060000080fb001007980011028000b4
:10484000000e20000100700010028800000000002f
:104850001e007800ae0090000080400010407800fc
:1048600080407800402921007d0d07001e00900047
:1048700000407800674060000080fb006700600037
:104880004500dd0012028000f1f12f00810061007f
:104890000100700010028800000000001e0fe800f8
:1048a0009e0078003e009000808f5000deff3900af
:1048b000b104800000002800008060000000e000db
:1048c00002003a0087e0a80097e0a8003e009000b0
:1048d0000080fa00000006000800fa003007980087
:1048e0003e00900090009000d09480000240200094
:1048f00000005100808f5000020039000000eb00e2
:10490000330037003e0090009000780011079800b7
:104910000000eb00000f78001f003700100280003d
:104920004500de00674060000080fb002007980023
:1049300011028000000e20000100700010028800ab
:10494000000000001e009000104078009e009000c3
:104950008100e8001107980080407800402921007c
:104960003f0d07002e009000004078006740600077
:104970000080fb00670060004500dd00120280003f
:10498000f1f12f0081006100010070001002880029
:10499000000000001e0fe8009e0078003e0090001e
:1049a00010009000808f5000dcff3900b1048000bf
:1049b00000002800008060000000e00002003a00d3
:1049c00087e0a80097e0a8003e009000100090004b
:1049d0000080fa00000006000400fa00204798005a
:1049e000d1948000f03f2000808f500002003600fc
:1049f0000000eb0021003700100280004500de00bf
:104a0000674060000080fb00000f7800110280000a
:104a1000000e20000100700010028800000000005d
:104a2000ae409000402921000d0d07001e007800c7
:104a300000407800674060000080fb006700600075
:104a40004500dd0012028000f1f12f0081006100bd
:104a5000010070001002880000000000b104800016
:104a600000002800008060000000e00002003a0022
:104a700087e0a80097e0a800100020000080fa005e
:104a8000000006000000fa0000000000e053800073
:104a90000000e000fdff3a0011118000002020001e
:104aa000008060000000e000f8ff3a000080fa009b
:104ab000000006000000fa0000000000d094800012
:104ac0000000e000fdff3a0091118000002020006e
:104ad000008060000000e000f8ff3a000080fa006b
:104ae000000006000200fa00000f7800e5ff070052
:104af0000b00370000000000111180000020200092
:104b0000008060000000e000fbff3a001e0078001b
:104b1000104078000000fb00201188001e0fe80004
:104b20001e007800104078000004e000f1ff3a0019
:104b30000080fa00000006000200fa00000f780072
:104b4000dcff07000b00370000000000911180001f
:104b500000202000008060000000e000fbff3a0021
:104b60001e007800104078000000fb00a0118800b3
:104b70001e0fe8001e007800104078000004e000de
:104b8000f1ff3a000080fa00000006000200fa007f
:104b9000004f7800bbff07001e80fb00201188003b
:104ba0000080fa00000006000200fa00004f7800c2
:104bb000c0ff07001e80fb00a01188000080fa00e3
:104bc000000006000600fa00100798002107980070
:104bd000acff07000000eb00000f78000d0037006d
:104be0000000000011118000002020000080600003
:104bf0000000e000fbff3a001e0078009e009000dd
:104c000000804000104078000080fb0020118800e8
:104c10001e0fe8009e0078002e009000808f50004c
:104c2000efff39000080fa00000006000600fa00dd
:104c300010079800210798009eff07000000eb0076
:104c4000000f78000d003700000000009111800077
:104c500000202000008060000000e000fbff3a0020
:104c60001e0078009e0090000080400010407800f8
:104c70000080fb00a01188001e0fe8009e00780055
:104c80002e009000808f5000efff39000080fa0066
:104c9000000006000000fa001011800062006000b1
:104ca0000000e000020032002222a90001003700cb
:104cb0000000000010118000610060000000e000b2
:104cc000fcff320030118000004078000080fa00c4
:104cd000000006000000fa009011800062006000f1
:104ce0000000e000020032003222a900010037007b
:104cf0000000000090118000610060000000e000f2
:104d0000fcff3200b0118000004078000080fa0003
:104d1000000006000400fa00000f78001107980058
:104d20009e007800114088009e00900021c48800f9
:104d30000080fa00000006000200fa00000f780070
:104d40009e007800e1c388000080fa0000000600a1
:104d50000200fa00000f78009e00780031c488003d
:104d60000080fa00000006000200fa00000f780040
:104d70009e007800f1c388000080fa000000060061
:104d80000200fa00000f78009e00780001c488003d
:104d90000080fa00000006000200fa00000f780010
:104da0009e00780041c488000080fa0000000600e0
:104db0000200fa00000f78009e00780011c48800fd
:104dc0000080fa00000006000200fa00000f7800e0
:104dd0009e00780051c488000080fa0000000600a0
:104de0000000fa0070c480000000e80070c4880071
:104df00071c48000703e2000808f50001c0036007f
:104e00000000eb0070c4880080c480000000e8004f
:104e100080c4880081c48000b0032000808f5000cf
:104e2000130036000000eb0080c4880090c48000ae
:104e30000000e80090c4880091c48000b003200006
:104e4000808f50000a0036000000eb0090c48800fc
:104e5000a0c480000000e800a0c48800a0c48000b6
:104e6000f70f5000020036000000eb00a0c48800dd
:104e70000080fa00000006000000fa00000178003f
:104e8000c088210082007800b0187800a010780057
:104e9000e480400064004000b0187800a010780062
:104ea000e480400064004000900878008180e800c1
:104eb0000080e800020078000080fa000000060090
:104ec0000400fa00004f780011479800224798002c
:104ed0001e80fb00a0c488001e4090000080fb00e4
:104ee00090c488002e4090000080fb0080c48800a1
:104ef0000000eb0070c488000000eb0060c4880074
:104f00000080fa00000006000000fa00889fbe0042
:104f10008a9fbe00b0c38000c1c38000f8ef0700c5
:104f20000004be00000880008000eb00f4ef0700e2
:104f30000005be00100880008000eb00f0ef0700c5
:104f40000001be000a00be008eef07000001be0097
:104f50000800be002eef07004f05be004f04be0044
:104f60000080fa00000006000000fa00b0c38000d4
:104f7000c1c38000823e20000289b900020178008e
:104f80006002b9008401780003014100833e2000e3
:104f90000300b8000101410082007800020880008f
:104fa0000201d1008001eb00000041008180490036
:104fb0000080fa00000006000000fa00b0c3800084
:104fc000c1c380000080fa00000006000200fa0061
:104fd000a0c38000000f78000000eb00a0c3880091
:104fe0001e007800004078000080fa0000000600f3
:104ff0000000fa0004c1a9000421a90021088000d2
:10500000f0fc2f00008060000040a0002008880015
:10501000007d2000100888000021ef009460a800a7
:1050200005e1a8000080fa00000006000200fa0076
:10503000000f78009e007800014088000080fa0090
:10504000000006000000fa000000eb00f0c388003a
:105050000000eb00e0c388000000eb0010c48800f3
:105060000000eb0000c48800e1ff07000080fa00a8
:10507000000006000a00fa00604798004107980007
:1050800000ec29002007980005c8bf000004e000dc
:1050900005003d000568ef000668ef000768ef00b7
:1050a0000868ef000968ef0009c8bf000080fb0036
:1050b000e10f500027003200e10f500003003c00d8
:1050c0000000e00006003200a9003700e20f5000a7
:1050d00030003200e30f50006d003200a4003700b2
:1050e00006c8bf000080fb00ae00900000804000ba
:1050f000904078006e40900080cf500012003a003f
:1051000005c8bf008080fb00ee4190006291210045
:1051100003f178000040e80005e8b70006c8bf00ca
:105120000040e80006e8b70006c8bf00e44f5000a2
:10513000880036000668ef0009c8bf000040e8009c
:1051400009e8b7008a0037000568ef000668ef003d
:105150008700370005c8bf008080fb00ee4190004b
:105160006291210003f178000040e80005e8b700f3
:10517000ee409000c0c2b30080cf500077003a00ec
:105180000768ef0009c8bf000040e80009e8b70061
:105190007700370005c8bf008080fb00ee4190001b
:1051a0006291210003f178000040e80005e8b700b3
:1051b00007c8bf008080fb00ee419000629921008b
:1051c00003f178000040e80007e8b700ee409000e7
:1051d000a0c3b30080cf500062003a0007c8bf00f0
:1051e0000040e90007e8b70007c8bf000080fb00e7
:1051f000619921000041eb00827078000868ef009f
:1052000010002000000f78001400370007c8bf000e
:105210000080fb0061992100614078000080fb0064
:105220000003b100004078009e00780081407800c3
:105230008180fb000088b900000078008040780081
:1052400008c8bf0000c0400008e8b7001e00780092
:105250006a00b90000007800000f780007c8bf009e
:105260008080fb008100ea00cf08de0081407800ea
:105270000040e90007e8b7000104e000e3ff3a005e
:1052800009c8bf000040e80009e8b700380037004f
:1052900005c8bf008080fb00ee41900062912100b4
:1052a00003f178000040e80005e8b70008c8bf0037
:1052b0000040e90008e8b70008c8bf000004e000ab
:1052c0002a003a000000eb00100798000c0037009d
:1052d0004e009000900078001e009000008040007a
:1052e000629121009e009000810041009140780071
:1052f000014878001e0090000000e80010079800a8
:1053000005c8bf008080fb001e009000808f500009
:10531000efff3d004e009000900078001e009000ce
:10532000008040008040eb00014878001e009000a3
:105330000000e900800078004e0090001100980005
:105340000968ef000568ef000668ef001000200014
:1053500008003700000000000500370000000000d2
:1053600003003700000000000100370000000000cb
:105370000000eb000080fa00000006000600fa00c2
:10538000204798002107980004c8bf000004e000ef
:1053900001003d000468ef0004c8bf008080fb00ee
:1053a000ae4190006289210003f178000040e800de
:1053b00004e8b7002e409000ea4f50001d003a006c
:1053c0000000eb00000f7800090037002e0090006d
:1053d000900078001e007800008040006189210064
:1053e0009e80400091407800014878001e0fe80040
:1053f00004c8bf000080fb009e0f5000f3ff3c007c
:105400002e009000900078001e0078000080400080
:105410008040eb000148780004c8bf008080fb009a
:105420002e009000110098000468ef00100020008a
:10543000010037000000eb000080fa0000000600c9
:10544000b600fa00e0c380000000e0002700320050
:10545000100280004500de00674060000080fb0015
:10546000000f780011028000000e20000100700083
:1054700010028800000000006a00470044fa07009c
:10548000100798001e007800004078006740600018
:105490000080fb00670060004500dd001202800014
:1054a000f1f12f00810061000100700010028800fe
:1054b000000000001e0090000000e0000b00320021
:1054c00010c0b300504f98000040eb00404f9800d0
:1054d0006a0047007007980010002000000f980035
:1054e000e1c380006c0047000100010000c480009f
:1054f0000000e00027003200100280004500de00be
:10550000674060000080fb002007980011028000c7
:10551000000e200001007000100288000000000052
:105520006a00470036fa0700100798002e00900026
:1055300000407800674060000080fb00670060006a
:105540004500dd0012028000f1f12f0081006100b2
:105550000100700010028800000000001e00900092
:105560000000e0000b00320020c0b300305798006c
:1055700010c0b300205798006a004700200f980021
:1055800010002000300f980001c480007200470016
:1055900001000100f0c380000000e00012003200b2
:1055a00040872000104078000004e0000e00320028
:1055b00010c0b300105f980020c0b300005f9800d7
:1055c0000000eb00500f98000000eb00600f980007
:1055d000f1c38000780047000100010040872000ef
:1055e0008040eb000148780010c480000000e0001b
:1055f0001200320020e92000104078000004e00092
:105600000e00320020c0b300705f980030c0b300bd
:10561000605f98000000eb00001798000000eb00ae
:105620001017980011c480007e004700010001009f
:1056300020e920008040eb00014878001002800043
:105640004500de00674060000080fb0030079800e6
:1056500011028000000e200001007000100288007e
:10566000000000006a00470080007800608620008b
